{
	"src/TinyLend.sol": {
		"TinyLend": {
			"abi": [
				{
					"inputs": [
						{
							"internalType": "address",
							"name": "user",
							"type": "address"
						},
						{
							"internalType": "address",
							"name": "collateral",
							"type": "address"
						}
					],
					"name": "accounts",
					"outputs": [
						{
							"internalType": "uint256",
							"name": "supplyShares",
							"type": "uint256"
						},
						{
							"internalType": "uint256",
							"name": "borrowShares",
							"type": "uint256"
						}
					],
					"stateMutability": "view",
					"type": "function"
				},
				{
					"inputs": [
						{
							"internalType": "address",
							"name": "col",
							"type": "address"
						},
						{
							"internalType": "uint256",
							"name": "amt",
							"type": "uint256"
						}
					],
					"name": "borrow",
					"outputs": [],
					"stateMutability": "nonpayable",
					"type": "function"
				},
				{
					"inputs": [
						{
							"internalType": "address",
							"name": "u",
							"type": "address"
						},
						{
							"internalType": "address",
							"name": "col",
							"type": "address"
						}
					],
					"name": "borrowedUnderlying",
					"outputs": [
						{
							"internalType": "uint256",
							"name": "",
							"type": "uint256"
						}
					],
					"stateMutability": "view",
					"type": "function"
				},
				{
					"inputs": [
						{
							"internalType": "address",
							"name": "col",
							"type": "address"
						},
						{
							"internalType": "uint256",
							"name": "amt",
							"type": "uint256"
						}
					],
					"name": "deposit",
					"outputs": [],
					"stateMutability": "nonpayable",
					"type": "function"
				},
				{
					"inputs": [
						{
							"internalType": "address",
							"name": "collateral",
							"type": "address"
						}
					],
					"name": "markets",
					"outputs": [
						{
							"internalType": "uint256",
							"name": "supplyAcc",
							"type": "uint256"
						},
						{
							"internalType": "uint256",
							"name": "borrowAcc",
							"type": "uint256"
						},
						{
							"internalType": "uint256",
							"name": "totalSupplyShares",
							"type": "uint256"
						},
						{
							"internalType": "uint256",
							"name": "totalBorrowShares",
							"type": "uint256"
						},
						{
							"internalType": "uint256",
							"name": "totalBorrowUnderlying",
							"type": "uint256"
						},
						{
							"internalType": "uint256",
							"name": "lastAccrual",
							"type": "uint256"
						}
					],
					"stateMutability": "view",
					"type": "function"
				},
				{
					"inputs": [
						{
							"internalType": "address",
							"name": "col",
							"type": "address"
						},
						{
							"internalType": "uint256",
							"name": "amt",
							"type": "uint256"
						}
					],
					"name": "repay",
					"outputs": [],
					"stateMutability": "nonpayable",
					"type": "function"
				},
				{
					"inputs": [
						{
							"internalType": "address",
							"name": "u",
							"type": "address"
						},
						{
							"internalType": "address",
							"name": "col",
							"type": "address"
						}
					],
					"name": "suppliedUnderlying",
					"outputs": [
						{
							"internalType": "uint256",
							"name": "",
							"type": "uint256"
						}
					],
					"stateMutability": "view",
					"type": "function"
				},
				{
					"inputs": [
						{
							"internalType": "address",
							"name": "col",
							"type": "address"
						},
						{
							"internalType": "uint256",
							"name": "amt",
							"type": "uint256"
						}
					],
					"name": "withdraw",
					"outputs": [],
					"stateMutability": "nonpayable",
					"type": "function"
				}
			],
			"devdoc": {
				"kind": "dev",
				"methods": {},
				"version": 1
			},
			"evm": {
				"assembly": "    /* \"src/TinyLend.sol\":132:5300  contract TinyLend {... */\n  mstore(0x40, 0x80)\n  callvalue\n  dup1\n  iszero\n  tag_1\n  jumpi\n  revert(0x00, 0x00)\ntag_1:\n  pop\n  dataSize(sub_0)\n  dup1\n  dataOffset(sub_0)\n  0x00\n  codecopy\n  0x00\n  return\nstop\n\nsub_0: assembly {\n        /* \"src/TinyLend.sol\":132:5300  contract TinyLend {... */\n      mstore(0x40, 0x80)\n      callvalue\n      dup1\n      iszero\n      tag_1\n      jumpi\n      revert(0x00, 0x00)\n    tag_1:\n      pop\n      jumpi(tag_2, lt(calldatasize, 0x04))\n      shr(0xe0, calldataload(0x00))\n      dup1\n      0x8e8f294b\n      gt\n      tag_11\n      jumpi\n      dup1\n      0x8e8f294b\n      eq\n      tag_7\n      jumpi\n      dup1\n      0xad74b775\n      eq\n      tag_8\n      jumpi\n      dup1\n      0xf3fef3a3\n      eq\n      tag_9\n      jumpi\n      dup1\n      0xf7fd9f32\n      eq\n      tag_10\n      jumpi\n      jump(tag_2)\n    tag_11:\n      dup1\n      0x22867d78\n      eq\n      tag_3\n      jumpi\n      dup1\n      0x47e7ef24\n      eq\n      tag_4\n      jumpi\n      dup1\n      0x4b8a3529\n      eq\n      tag_5\n      jumpi\n      dup1\n      0x5bc6bdc9\n      eq\n      tag_6\n      jumpi\n    tag_2:\n      revert(0x00, 0x00)\n        /* \"src/TinyLend.sol\":2539:3434  function repay(address col, uint256 amt) external {... */\n    tag_3:\n      tag_12\n      0x04\n      dup1\n      calldatasize\n      sub\n      dup2\n      add\n      swap1\n      tag_13\n      swap2\n      swap1\n      tag_14\n      jump\t// in\n    tag_13:\n      tag_15\n      jump\t// in\n    tag_12:\n      stop\n        /* \"src/TinyLend.sol\":947:1386  function deposit(address col, uint256 amt) external { ... */\n    tag_4:\n      tag_16\n      0x04\n      dup1\n      calldatasize\n      sub\n      dup2\n      add\n      swap1\n      tag_17\n      swap2\n      swap1\n      tag_14\n      jump\t// in\n    tag_17:\n      tag_18\n      jump\t// in\n    tag_16:\n      stop\n        /* \"src/TinyLend.sol\":1993:2449  function borrow(address col, uint256 amt) external {... */\n    tag_5:\n      tag_19\n      0x04\n      dup1\n      calldatasize\n      sub\n      dup2\n      add\n      swap1\n      tag_20\n      swap2\n      swap1\n      tag_14\n      jump\t// in\n    tag_20:\n      tag_21\n      jump\t// in\n    tag_19:\n      stop\n        /* \"src/TinyLend.sol\":3486:3716  function suppliedUnderlying(address u, address col) external view returns (uint256) {... */\n    tag_6:\n      tag_22\n      0x04\n      dup1\n      calldatasize\n      sub\n      dup2\n      add\n      swap1\n      tag_23\n      swap2\n      swap1\n      tag_24\n      jump\t// in\n    tag_23:\n      tag_25\n      jump\t// in\n    tag_22:\n      mload(0x40)\n      tag_26\n      swap2\n      swap1\n      tag_27\n      jump\t// in\n    tag_26:\n      mload(0x40)\n      dup1\n      swap2\n      sub\n      swap1\n      return\n        /* \"src/TinyLend.sol\":683:735  mapping(address collateral => Market) public markets */\n    tag_7:\n      tag_28\n      0x04\n      dup1\n      calldatasize\n      sub\n      dup2\n      add\n      swap1\n      tag_29\n      swap2\n      swap1\n      tag_30\n      jump\t// in\n    tag_29:\n      tag_31\n      jump\t// in\n    tag_28:\n      mload(0x40)\n      tag_32\n      swap7\n      swap6\n      swap5\n      swap4\n      swap3\n      swap2\n      swap1\n      tag_33\n      jump\t// in\n    tag_32:\n      mload(0x40)\n      dup1\n      swap2\n      sub\n      swap1\n      return\n        /* \"src/TinyLend.sol\":741:820  mapping(address user => mapping(address collateral => Account)) public accounts */\n    tag_8:\n      tag_34\n      0x04\n      dup1\n      calldatasize\n      sub\n      dup2\n      add\n      swap1\n      tag_35\n      swap2\n      swap1\n      tag_24\n      jump\t// in\n    tag_35:\n      tag_36\n      jump\t// in\n    tag_34:\n      mload(0x40)\n      tag_37\n      swap3\n      swap2\n      swap1\n      tag_38\n      jump\t// in\n    tag_37:\n      mload(0x40)\n      dup1\n      swap2\n      sub\n      swap1\n      return\n        /* \"src/TinyLend.sol\":1455:1903  function withdraw(address col, uint256 amt) external {... */\n    tag_9:\n      tag_39\n      0x04\n      dup1\n      calldatasize\n      sub\n      dup2\n      add\n      swap1\n      tag_40\n      swap2\n      swap1\n      tag_14\n      jump\t// in\n    tag_40:\n      tag_41\n      jump\t// in\n    tag_39:\n      stop\n        /* \"src/TinyLend.sol\":3722:3952  function borrowedUnderlying(address u, address col) external view returns (uint256) {... */\n    tag_10:\n      tag_42\n      0x04\n      dup1\n      calldatasize\n      sub\n      dup2\n      add\n      swap1\n      tag_43\n      swap2\n      swap1\n      tag_24\n      jump\t// in\n    tag_43:\n      tag_44\n      jump\t// in\n    tag_42:\n      mload(0x40)\n      tag_45\n      swap2\n      swap1\n      tag_27\n      jump\t// in\n    tag_45:\n      mload(0x40)\n      dup1\n      swap2\n      sub\n      swap1\n      return\n        /* \"src/TinyLend.sol\":2539:3434  function repay(address col, uint256 amt) external {... */\n    tag_15:\n        /* \"src/TinyLend.sol\":2599:2611  _accrue(col) */\n      tag_47\n        /* \"src/TinyLend.sol\":2607:2610  col */\n      dup3\n        /* \"src/TinyLend.sol\":2599:2606  _accrue */\n      tag_48\n        /* \"src/TinyLend.sol\":2599:2611  _accrue(col) */\n      jump\t// in\n    tag_47:\n        /* \"src/TinyLend.sol\":2622:2639  Market  storage m */\n      0x00\n        /* \"src/TinyLend.sol\":2642:2649  markets */\n      0x00\n        /* \"src/TinyLend.sol\":2642:2654  markets[col] */\n      0x00\n        /* \"src/TinyLend.sol\":2650:2653  col */\n      dup5\n        /* \"src/TinyLend.sol\":2642:2654  markets[col] */\n      0xffffffffffffffffffffffffffffffffffffffff\n      and\n      0xffffffffffffffffffffffffffffffffffffffff\n      and\n      dup2\n      mstore\n      0x20\n      add\n      swap1\n      dup2\n      mstore\n      0x20\n      add\n      0x00\n      keccak256\n        /* \"src/TinyLend.sol\":2622:2654  Market  storage m = markets[col] */\n      swap1\n      pop\n        /* \"src/TinyLend.sol\":2664:2681  Account storage a */\n      0x00\n        /* \"src/TinyLend.sol\":2684:2692  accounts */\n      0x01\n        /* \"src/TinyLend.sol\":2684:2704  accounts[msg.sender] */\n      0x00\n        /* \"src/TinyLend.sol\":2693:2703  msg.sender */\n      caller\n        /* \"src/TinyLend.sol\":2684:2704  accounts[msg.sender] */\n      0xffffffffffffffffffffffffffffffffffffffff\n      and\n      0xffffffffffffffffffffffffffffffffffffffff\n      and\n      dup2\n      mstore\n      0x20\n      add\n      swap1\n      dup2\n      mstore\n      0x20\n      add\n      0x00\n      keccak256\n        /* \"src/TinyLend.sol\":2684:2709  accounts[msg.sender][col] */\n      0x00\n        /* \"src/TinyLend.sol\":2705:2708  col */\n      dup6\n        /* \"src/TinyLend.sol\":2684:2709  accounts[msg.sender][col] */\n      0xffffffffffffffffffffffffffffffffffffffff\n      and\n      0xffffffffffffffffffffffffffffffffffffffff\n      and\n      dup2\n      mstore\n      0x20\n      add\n      swap1\n      dup2\n      mstore\n      0x20\n      add\n      0x00\n      keccak256\n        /* \"src/TinyLend.sol\":2664:2709  Account storage a = accounts[msg.sender][col] */\n      swap1\n      pop\n        /* \"src/TinyLend.sol\":2802:2824  uint256 underlyingOwed */\n      0x00\n        /* \"src/TinyLend.sol\":239:243  1e27 */\n      0x033b2e3c9fd0803ce8000000\n        /* \"src/TinyLend.sol\":2844:2845  m */\n      dup4\n        /* \"src/TinyLend.sol\":2844:2855  m.borrowAcc */\n      0x01\n      add\n      sload\n        /* \"src/TinyLend.sol\":2827:2828  a */\n      dup4\n        /* \"src/TinyLend.sol\":2827:2841  a.borrowShares */\n      0x01\n      add\n      sload\n        /* \"src/TinyLend.sol\":2827:2855  a.borrowShares * m.borrowAcc */\n      tag_49\n      swap2\n      swap1\n      tag_50\n      jump\t// in\n    tag_49:\n        /* \"src/TinyLend.sol\":2827:2861  a.borrowShares * m.borrowAcc / RAY */\n      tag_51\n      swap2\n      swap1\n      tag_52\n      jump\t// in\n    tag_51:\n        /* \"src/TinyLend.sol\":2802:2861  uint256 underlyingOwed = a.borrowShares * m.borrowAcc / RAY */\n      swap1\n      pop\n        /* \"src/TinyLend.sol\":2882:2899  type(uint256).max */\n      0xffffffffffffffffffffffffffffffffffffffffffffffffffffffffffffffff\n        /* \"src/TinyLend.sol\":2875:2878  amt */\n      dup5\n        /* \"src/TinyLend.sol\":2875:2899  amt == type(uint256).max */\n      sub\n        /* \"src/TinyLend.sol\":2871:2921  if (amt == type(uint256).max) amt = underlyingOwed */\n      tag_53\n      jumpi\n        /* \"src/TinyLend.sol\":2907:2921  underlyingOwed */\n      dup1\n        /* \"src/TinyLend.sol\":2901:2921  amt = underlyingOwed */\n      swap4\n      pop\n        /* \"src/TinyLend.sol\":2871:2921  if (amt == type(uint256).max) amt = underlyingOwed */\n    tag_53:\n        /* \"src/TinyLend.sol\":2945:2946  0 */\n      0x00\n        /* \"src/TinyLend.sol\":2939:2942  amt */\n      dup5\n        /* \"src/TinyLend.sol\":2939:2946  amt > 0 */\n      gt\n        /* \"src/TinyLend.sol\":2931:2967  require(amt > 0, \"nothing to repay\") */\n      tag_54\n      jumpi\n      mload(0x40)\n      0x08c379a000000000000000000000000000000000000000000000000000000000\n      dup2\n      mstore\n      0x04\n      add\n      tag_55\n      swap1\n      tag_56\n      jump\t// in\n    tag_55:\n      mload(0x40)\n      dup1\n      swap2\n      sub\n      swap1\n      revert\n    tag_54:\n        /* \"src/TinyLend.sol\":2992:3006  underlyingOwed */\n      dup1\n        /* \"src/TinyLend.sol\":2985:2988  amt */\n      dup5\n        /* \"src/TinyLend.sol\":2985:3006  amt <= underlyingOwed */\n      gt\n      iszero\n        /* \"src/TinyLend.sol\":2977:3031  require(amt <= underlyingOwed, \"repay more than owed\") */\n      tag_57\n      jumpi\n      mload(0x40)\n      0x08c379a000000000000000000000000000000000000000000000000000000000\n      dup2\n      mstore\n      0x04\n      add\n      tag_58\n      swap1\n      tag_59\n      jump\t// in\n    tag_58:\n      mload(0x40)\n      dup1\n      swap2\n      sub\n      swap1\n      revert\n    tag_57:\n        /* \"src/TinyLend.sol\":3124:3138  uint256 shares */\n      0x00\n        /* \"src/TinyLend.sol\":3173:3174  m */\n      dup4\n        /* \"src/TinyLend.sol\":3173:3184  m.borrowAcc */\n      0x01\n      add\n      sload\n        /* \"src/TinyLend.sol\":3168:3169  1 */\n      0x01\n        /* \"src/TinyLend.sol\":3154:3155  m */\n      dup6\n        /* \"src/TinyLend.sol\":3154:3165  m.borrowAcc */\n      0x01\n      add\n      sload\n        /* \"src/TinyLend.sol\":239:243  1e27 */\n      0x033b2e3c9fd0803ce8000000\n        /* \"src/TinyLend.sol\":3142:3145  amt */\n      dup9\n        /* \"src/TinyLend.sol\":3142:3151  amt * RAY */\n      tag_60\n      swap2\n      swap1\n      tag_50\n      jump\t// in\n    tag_60:\n        /* \"src/TinyLend.sol\":3142:3165  amt * RAY + m.borrowAcc */\n      tag_61\n      swap2\n      swap1\n      tag_62\n      jump\t// in\n    tag_61:\n        /* \"src/TinyLend.sol\":3142:3169  amt * RAY + m.borrowAcc - 1 */\n      tag_63\n      swap2\n      swap1\n      tag_64\n      jump\t// in\n    tag_63:\n        /* \"src/TinyLend.sol\":3141:3184  (amt * RAY + m.borrowAcc - 1) / m.borrowAcc */\n      tag_65\n      swap2\n      swap1\n      tag_52\n      jump\t// in\n    tag_65:\n        /* \"src/TinyLend.sol\":3124:3184  uint256 shares = (amt * RAY + m.borrowAcc - 1) / m.borrowAcc */\n      swap1\n      pop\n        /* \"src/TinyLend.sol\":3217:3223  shares */\n      dup1\n        /* \"src/TinyLend.sol\":3194:3195  a */\n      dup4\n        /* \"src/TinyLend.sol\":3194:3208  a.borrowShares */\n      0x01\n      add\n      0x00\n        /* \"src/TinyLend.sol\":3194:3223  a.borrowShares      -= shares */\n      dup3\n      dup3\n      sload\n      tag_66\n      swap2\n      swap1\n      tag_64\n      jump\t// in\n    tag_66:\n      swap3\n      pop\n      pop\n      dup2\n      swap1\n      sstore\n      pop\n        /* \"src/TinyLend.sol\":3256:3262  shares */\n      dup1\n        /* \"src/TinyLend.sol\":3233:3234  m */\n      dup5\n        /* \"src/TinyLend.sol\":3233:3252  m.totalBorrowShares */\n      0x03\n      add\n      0x00\n        /* \"src/TinyLend.sol\":3233:3262  m.totalBorrowShares -= shares */\n      dup3\n      dup3\n      sload\n      tag_67\n      swap2\n      swap1\n      tag_64\n      jump\t// in\n    tag_67:\n      swap3\n      pop\n      pop\n      dup2\n      swap1\n      sstore\n      pop\n        /* \"src/TinyLend.sol\":3299:3302  amt */\n      dup5\n        /* \"src/TinyLend.sol\":3272:3273  m */\n      dup5\n        /* \"src/TinyLend.sol\":3272:3295  m.totalBorrowUnderlying */\n      0x04\n      add\n      0x00\n        /* \"src/TinyLend.sol\":3272:3302  m.totalBorrowUnderlying -= amt */\n      dup3\n      dup3\n      sload\n      tag_68\n      swap2\n      swap1\n      tag_64\n      jump\t// in\n    tag_68:\n      swap3\n      pop\n      pop\n      dup2\n      swap1\n      sstore\n      pop\n        /* \"src/TinyLend.sol\":3358:3361  col */\n      dup6\n        /* \"src/TinyLend.sol\":3351:3375  IERC20(col).transferFrom */\n      0xffffffffffffffffffffffffffffffffffffffff\n      and\n      0x23b872dd\n        /* \"src/TinyLend.sol\":3376:3386  msg.sender */\n      caller\n        /* \"src/TinyLend.sol\":3396:3400  this */\n      address\n        /* \"src/TinyLend.sol\":3403:3406  amt */\n      dup9\n        /* \"src/TinyLend.sol\":3351:3407  IERC20(col).transferFrom(msg.sender, address(this), amt) */\n      mload(0x40)\n      dup5\n      0xffffffff\n      and\n      0xe0\n      shl\n      dup2\n      mstore\n      0x04\n      add\n      tag_69\n      swap4\n      swap3\n      swap2\n      swap1\n      tag_70\n      jump\t// in\n    tag_69:\n      0x20\n      mload(0x40)\n      dup1\n      dup4\n      sub\n      dup2\n      0x00\n      dup8\n      gas\n      call\n      iszero\n      dup1\n      iszero\n      tag_72\n      jumpi\n      returndatacopy(0x00, 0x00, returndatasize)\n      revert(0x00, returndatasize)\n    tag_72:\n      pop\n      pop\n      pop\n      pop\n      mload(0x40)\n      returndatasize\n      not(0x1f)\n      0x1f\n      dup3\n      add\n      and\n      dup3\n      add\n      dup1\n      0x40\n      mstore\n      pop\n      dup2\n      add\n      swap1\n      tag_73\n      swap2\n      swap1\n      tag_74\n      jump\t// in\n    tag_73:\n        /* \"src/TinyLend.sol\":3343:3427  require(IERC20(col).transferFrom(msg.sender, address(this), amt), \"transfer failed\") */\n      tag_75\n      jumpi\n      mload(0x40)\n      0x08c379a000000000000000000000000000000000000000000000000000000000\n      dup2\n      mstore\n      0x04\n      add\n      tag_76\n      swap1\n      tag_77\n      jump\t// in\n    tag_76:\n      mload(0x40)\n      dup1\n      swap2\n      sub\n      swap1\n      revert\n    tag_75:\n        /* \"src/TinyLend.sol\":2589:3434  {... */\n      pop\n      pop\n      pop\n      pop\n        /* \"src/TinyLend.sol\":2539:3434  function repay(address col, uint256 amt) external {... */\n      pop\n      pop\n      jump\t// out\n        /* \"src/TinyLend.sol\":947:1386  function deposit(address col, uint256 amt) external { ... */\n    tag_18:\n        /* \"src/TinyLend.sol\":1010:1022  _accrue(col) */\n      tag_79\n        /* \"src/TinyLend.sol\":1018:1021  col */\n      dup3\n        /* \"src/TinyLend.sol\":1010:1017  _accrue */\n      tag_48\n        /* \"src/TinyLend.sol\":1010:1022  _accrue(col) */\n      jump\t// in\n    tag_79:\n        /* \"src/TinyLend.sol\":1033:1049  Market storage m */\n      0x00\n        /* \"src/TinyLend.sol\":1052:1059  markets */\n      0x00\n        /* \"src/TinyLend.sol\":1052:1064  markets[col] */\n      0x00\n        /* \"src/TinyLend.sol\":1060:1063  col */\n      dup5\n        /* \"src/TinyLend.sol\":1052:1064  markets[col] */\n      0xffffffffffffffffffffffffffffffffffffffff\n      and\n      0xffffffffffffffffffffffffffffffffffffffff\n      and\n      dup2\n      mstore\n      0x20\n      add\n      swap1\n      dup2\n      mstore\n      0x20\n      add\n      0x00\n      keccak256\n        /* \"src/TinyLend.sol\":1033:1064  Market storage m = markets[col] */\n      swap1\n      pop\n        /* \"src/TinyLend.sol\":1075:1092  Account storage a */\n      0x00\n        /* \"src/TinyLend.sol\":1095:1103  accounts */\n      0x01\n        /* \"src/TinyLend.sol\":1095:1115  accounts[msg.sender] */\n      0x00\n        /* \"src/TinyLend.sol\":1104:1114  msg.sender */\n      caller\n        /* \"src/TinyLend.sol\":1095:1115  accounts[msg.sender] */\n      0xffffffffffffffffffffffffffffffffffffffff\n      and\n      0xffffffffffffffffffffffffffffffffffffffff\n      and\n      dup2\n      mstore\n      0x20\n      add\n      swap1\n      dup2\n      mstore\n      0x20\n      add\n      0x00\n      keccak256\n        /* \"src/TinyLend.sol\":1095:1120  accounts[msg.sender][col] */\n      0x00\n        /* \"src/TinyLend.sol\":1116:1119  col */\n      dup6\n        /* \"src/TinyLend.sol\":1095:1120  accounts[msg.sender][col] */\n      0xffffffffffffffffffffffffffffffffffffffff\n      and\n      0xffffffffffffffffffffffffffffffffffffffff\n      and\n      dup2\n      mstore\n      0x20\n      add\n      swap1\n      dup2\n      mstore\n      0x20\n      add\n      0x00\n      keccak256\n        /* \"src/TinyLend.sol\":1075:1120  Account storage a = accounts[msg.sender][col] */\n      swap1\n      pop\n        /* \"src/TinyLend.sol\":1131:1145  uint256 shares */\n      0x00\n        /* \"src/TinyLend.sol\":1162:1163  m */\n      dup3\n        /* \"src/TinyLend.sol\":1162:1173  m.supplyAcc */\n      0x00\n      add\n      sload\n        /* \"src/TinyLend.sol\":239:243  1e27 */\n      0x033b2e3c9fd0803ce8000000\n        /* \"src/TinyLend.sol\":1149:1152  amt */\n      dup6\n        /* \"src/TinyLend.sol\":1149:1158  amt * RAY */\n      tag_80\n      swap2\n      swap1\n      tag_50\n      jump\t// in\n    tag_80:\n        /* \"src/TinyLend.sol\":1148:1173  (amt * RAY) / m.supplyAcc */\n      tag_81\n      swap2\n      swap1\n      tag_52\n      jump\t// in\n    tag_81:\n        /* \"src/TinyLend.sol\":1131:1173  uint256 shares = (amt * RAY) / m.supplyAcc */\n      swap1\n      pop\n        /* \"src/TinyLend.sol\":1209:1215  shares */\n      dup1\n        /* \"src/TinyLend.sol\":1186:1187  a */\n      dup3\n        /* \"src/TinyLend.sol\":1186:1200  a.supplyShares */\n      0x00\n      add\n      0x00\n        /* \"src/TinyLend.sol\":1186:1215  a.supplyShares      += shares */\n      dup3\n      dup3\n      sload\n      tag_82\n      swap2\n      swap1\n      tag_62\n      jump\t// in\n    tag_82:\n      swap3\n      pop\n      pop\n      dup2\n      swap1\n      sstore\n      pop\n        /* \"src/TinyLend.sol\":1248:1254  shares */\n      dup1\n        /* \"src/TinyLend.sol\":1225:1226  m */\n      dup4\n        /* \"src/TinyLend.sol\":1225:1244  m.totalSupplyShares */\n      0x02\n      add\n      0x00\n        /* \"src/TinyLend.sol\":1225:1254  m.totalSupplyShares += shares */\n      dup3\n      dup3\n      sload\n      tag_83\n      swap2\n      swap1\n      tag_62\n      jump\t// in\n    tag_83:\n      swap3\n      pop\n      pop\n      dup2\n      swap1\n      sstore\n      pop\n        /* \"src/TinyLend.sol\":1310:1313  col */\n      dup5\n        /* \"src/TinyLend.sol\":1303:1327  IERC20(col).transferFrom */\n      0xffffffffffffffffffffffffffffffffffffffff\n      and\n      0x23b872dd\n        /* \"src/TinyLend.sol\":1328:1338  msg.sender */\n      caller\n        /* \"src/TinyLend.sol\":1348:1352  this */\n      address\n        /* \"src/TinyLend.sol\":1355:1358  amt */\n      dup8\n        /* \"src/TinyLend.sol\":1303:1359  IERC20(col).transferFrom(msg.sender, address(this), amt) */\n      mload(0x40)\n      dup5\n      0xffffffff\n      and\n      0xe0\n      shl\n      dup2\n      mstore\n      0x04\n      add\n      tag_84\n      swap4\n      swap3\n      swap2\n      swap1\n      tag_70\n      jump\t// in\n    tag_84:\n      0x20\n      mload(0x40)\n      dup1\n      dup4\n      sub\n      dup2\n      0x00\n      dup8\n      gas\n      call\n      iszero\n      dup1\n      iszero\n      tag_86\n      jumpi\n      returndatacopy(0x00, 0x00, returndatasize)\n      revert(0x00, returndatasize)\n    tag_86:\n      pop\n      pop\n      pop\n      pop\n      mload(0x40)\n      returndatasize\n      not(0x1f)\n      0x1f\n      dup3\n      add\n      and\n      dup3\n      add\n      dup1\n      0x40\n      mstore\n      pop\n      dup2\n      add\n      swap1\n      tag_87\n      swap2\n      swap1\n      tag_74\n      jump\t// in\n    tag_87:\n        /* \"src/TinyLend.sol\":1295:1379  require(IERC20(col).transferFrom(msg.sender, address(this), amt), \"transfer failed\") */\n      tag_88\n      jumpi\n      mload(0x40)\n      0x08c379a000000000000000000000000000000000000000000000000000000000\n      dup2\n      mstore\n      0x04\n      add\n      tag_89\n      swap1\n      tag_77\n      jump\t// in\n    tag_89:\n      mload(0x40)\n      dup1\n      swap2\n      sub\n      swap1\n      revert\n    tag_88:\n        /* \"src/TinyLend.sol\":999:1386  { ... */\n      pop\n      pop\n      pop\n        /* \"src/TinyLend.sol\":947:1386  function deposit(address col, uint256 amt) external { ... */\n      pop\n      pop\n      jump\t// out\n        /* \"src/TinyLend.sol\":1993:2449  function borrow(address col, uint256 amt) external {... */\n    tag_21:\n        /* \"src/TinyLend.sol\":2054:2066  _accrue(col) */\n      tag_91\n        /* \"src/TinyLend.sol\":2062:2065  col */\n      dup3\n        /* \"src/TinyLend.sol\":2054:2061  _accrue */\n      tag_48\n        /* \"src/TinyLend.sol\":2054:2066  _accrue(col) */\n      jump\t// in\n    tag_91:\n        /* \"src/TinyLend.sol\":2077:2094  Market  storage m */\n      0x00\n        /* \"src/TinyLend.sol\":2097:2104  markets */\n      0x00\n        /* \"src/TinyLend.sol\":2097:2109  markets[col] */\n      0x00\n        /* \"src/TinyLend.sol\":2105:2108  col */\n      dup5\n        /* \"src/TinyLend.sol\":2097:2109  markets[col] */\n      0xffffffffffffffffffffffffffffffffffffffff\n      and\n      0xffffffffffffffffffffffffffffffffffffffff\n      and\n      dup2\n      mstore\n      0x20\n      add\n      swap1\n      dup2\n      mstore\n      0x20\n      add\n      0x00\n      keccak256\n        /* \"src/TinyLend.sol\":2077:2109  Market  storage m = markets[col] */\n      swap1\n      pop\n        /* \"src/TinyLend.sol\":2119:2136  Account storage a */\n      0x00\n        /* \"src/TinyLend.sol\":2139:2147  accounts */\n      0x01\n        /* \"src/TinyLend.sol\":2139:2159  accounts[msg.sender] */\n      0x00\n        /* \"src/TinyLend.sol\":2148:2158  msg.sender */\n      caller\n        /* \"src/TinyLend.sol\":2139:2159  accounts[msg.sender] */\n      0xffffffffffffffffffffffffffffffffffffffff\n      and\n      0xffffffffffffffffffffffffffffffffffffffff\n      and\n      dup2\n      mstore\n      0x20\n      add\n      swap1\n      dup2\n      mstore\n      0x20\n      add\n      0x00\n      keccak256\n        /* \"src/TinyLend.sol\":2139:2164  accounts[msg.sender][col] */\n      0x00\n        /* \"src/TinyLend.sol\":2160:2163  col */\n      dup6\n        /* \"src/TinyLend.sol\":2139:2164  accounts[msg.sender][col] */\n      0xffffffffffffffffffffffffffffffffffffffff\n      and\n      0xffffffffffffffffffffffffffffffffffffffff\n      and\n      dup2\n      mstore\n      0x20\n      add\n      swap1\n      dup2\n      mstore\n      0x20\n      add\n      0x00\n      keccak256\n        /* \"src/TinyLend.sol\":2119:2164  Account storage a = accounts[msg.sender][col] */\n      swap1\n      pop\n        /* \"src/TinyLend.sol\":2175:2189  uint256 shares */\n      0x00\n        /* \"src/TinyLend.sol\":2206:2207  m */\n      dup3\n        /* \"src/TinyLend.sol\":2206:2217  m.borrowAcc */\n      0x01\n      add\n      sload\n        /* \"src/TinyLend.sol\":239:243  1e27 */\n      0x033b2e3c9fd0803ce8000000\n        /* \"src/TinyLend.sol\":2193:2196  amt */\n      dup6\n        /* \"src/TinyLend.sol\":2193:2202  amt * RAY */\n      tag_92\n      swap2\n      swap1\n      tag_50\n      jump\t// in\n    tag_92:\n        /* \"src/TinyLend.sol\":2192:2217  (amt * RAY) / m.borrowAcc */\n      tag_93\n      swap2\n      swap1\n      tag_52\n      jump\t// in\n    tag_93:\n        /* \"src/TinyLend.sol\":2175:2217  uint256 shares = (amt * RAY) / m.borrowAcc */\n      swap1\n      pop\n        /* \"src/TinyLend.sol\":2250:2256  shares */\n      dup1\n        /* \"src/TinyLend.sol\":2227:2228  a */\n      dup3\n        /* \"src/TinyLend.sol\":2227:2241  a.borrowShares */\n      0x01\n      add\n      0x00\n        /* \"src/TinyLend.sol\":2227:2256  a.borrowShares      += shares */\n      dup3\n      dup3\n      sload\n      tag_94\n      swap2\n      swap1\n      tag_62\n      jump\t// in\n    tag_94:\n      swap3\n      pop\n      pop\n      dup2\n      swap1\n      sstore\n      pop\n        /* \"src/TinyLend.sol\":2289:2295  shares */\n      dup1\n        /* \"src/TinyLend.sol\":2266:2267  m */\n      dup4\n        /* \"src/TinyLend.sol\":2266:2285  m.totalBorrowShares */\n      0x03\n      add\n      0x00\n        /* \"src/TinyLend.sol\":2266:2295  m.totalBorrowShares += shares */\n      dup3\n      dup3\n      sload\n      tag_95\n      swap2\n      swap1\n      tag_62\n      jump\t// in\n    tag_95:\n      swap3\n      pop\n      pop\n      dup2\n      swap1\n      sstore\n      pop\n        /* \"src/TinyLend.sol\":2332:2335  amt */\n      dup4\n        /* \"src/TinyLend.sol\":2305:2306  m */\n      dup4\n        /* \"src/TinyLend.sol\":2305:2328  m.totalBorrowUnderlying */\n      0x04\n      add\n      0x00\n        /* \"src/TinyLend.sol\":2305:2335  m.totalBorrowUnderlying += amt */\n      dup3\n      dup3\n      sload\n      tag_96\n      swap2\n      swap1\n      tag_62\n      jump\t// in\n    tag_96:\n      swap3\n      pop\n      pop\n      dup2\n      swap1\n      sstore\n      pop\n        /* \"src/TinyLend.sol\":2392:2395  col */\n      dup5\n        /* \"src/TinyLend.sol\":2385:2405  IERC20(col).transfer */\n      0xffffffffffffffffffffffffffffffffffffffff\n      and\n      0xa9059cbb\n        /* \"src/TinyLend.sol\":2406:2416  msg.sender */\n      caller\n        /* \"src/TinyLend.sol\":2418:2421  amt */\n      dup7\n        /* \"src/TinyLend.sol\":2385:2422  IERC20(col).transfer(msg.sender, amt) */\n      mload(0x40)\n      dup4\n      0xffffffff\n      and\n      0xe0\n      shl\n      dup2\n      mstore\n      0x04\n      add\n      tag_97\n      swap3\n      swap2\n      swap1\n      tag_98\n      jump\t// in\n    tag_97:\n      0x20\n      mload(0x40)\n      dup1\n      dup4\n      sub\n      dup2\n      0x00\n      dup8\n      gas\n      call\n      iszero\n      dup1\n      iszero\n      tag_100\n      jumpi\n      returndatacopy(0x00, 0x00, returndatasize)\n      revert(0x00, returndatasize)\n    tag_100:\n      pop\n      pop\n      pop\n      pop\n      mload(0x40)\n      returndatasize\n      not(0x1f)\n      0x1f\n      dup3\n      add\n      and\n      dup3\n      add\n      dup1\n      0x40\n      mstore\n      pop\n      dup2\n      add\n      swap1\n      tag_101\n      swap2\n      swap1\n      tag_74\n      jump\t// in\n    tag_101:\n        /* \"src/TinyLend.sol\":2377:2442  require(IERC20(col).transfer(msg.sender, amt), \"transfer failed\") */\n      tag_102\n      jumpi\n      mload(0x40)\n      0x08c379a000000000000000000000000000000000000000000000000000000000\n      dup2\n      mstore\n      0x04\n      add\n      tag_103\n      swap1\n      tag_77\n      jump\t// in\n    tag_103:\n      mload(0x40)\n      dup1\n      swap2\n      sub\n      swap1\n      revert\n    tag_102:\n        /* \"src/TinyLend.sol\":2044:2449  {... */\n      pop\n      pop\n      pop\n        /* \"src/TinyLend.sol\":1993:2449  function borrow(address col, uint256 amt) external {... */\n      pop\n      pop\n      jump\t// out\n        /* \"src/TinyLend.sol\":3486:3716  function suppliedUnderlying(address u, address col) external view returns (uint256) {... */\n    tag_25:\n        /* \"src/TinyLend.sol\":3561:3568  uint256 */\n      0x00\n        /* \"src/TinyLend.sol\":3580:3597  Market  storage m */\n      0x00\n        /* \"src/TinyLend.sol\":3600:3607  markets */\n      0x00\n        /* \"src/TinyLend.sol\":3600:3612  markets[col] */\n      0x00\n        /* \"src/TinyLend.sol\":3608:3611  col */\n      dup5\n        /* \"src/TinyLend.sol\":3600:3612  markets[col] */\n      0xffffffffffffffffffffffffffffffffffffffff\n      and\n      0xffffffffffffffffffffffffffffffffffffffff\n      and\n      dup2\n      mstore\n      0x20\n      add\n      swap1\n      dup2\n      mstore\n      0x20\n      add\n      0x00\n      keccak256\n        /* \"src/TinyLend.sol\":3580:3612  Market  storage m = markets[col] */\n      swap1\n      pop\n        /* \"src/TinyLend.sol\":3622:3639  Account storage a */\n      0x00\n        /* \"src/TinyLend.sol\":3642:3650  accounts */\n      0x01\n        /* \"src/TinyLend.sol\":3642:3653  accounts[u] */\n      0x00\n        /* \"src/TinyLend.sol\":3651:3652  u */\n      dup7\n        /* \"src/TinyLend.sol\":3642:3653  accounts[u] */\n      0xffffffffffffffffffffffffffffffffffffffff\n      and\n      0xffffffffffffffffffffffffffffffffffffffff\n      and\n      dup2\n      mstore\n      0x20\n      add\n      swap1\n      dup2\n      mstore\n      0x20\n      add\n      0x00\n      keccak256\n        /* \"src/TinyLend.sol\":3642:3658  accounts[u][col] */\n      0x00\n        /* \"src/TinyLend.sol\":3654:3657  col */\n      dup6\n        /* \"src/TinyLend.sol\":3642:3658  accounts[u][col] */\n      0xffffffffffffffffffffffffffffffffffffffff\n      and\n      0xffffffffffffffffffffffffffffffffffffffff\n      and\n      dup2\n      mstore\n      0x20\n      add\n      swap1\n      dup2\n      mstore\n      0x20\n      add\n      0x00\n      keccak256\n        /* \"src/TinyLend.sol\":3622:3658  Account storage a = accounts[u][col] */\n      swap1\n      pop\n        /* \"src/TinyLend.sol\":239:243  1e27 */\n      0x033b2e3c9fd0803ce8000000\n        /* \"src/TinyLend.sol\":3692:3693  m */\n      dup3\n        /* \"src/TinyLend.sol\":3692:3703  m.supplyAcc */\n      0x00\n      add\n      sload\n        /* \"src/TinyLend.sol\":3675:3676  a */\n      dup3\n        /* \"src/TinyLend.sol\":3675:3689  a.supplyShares */\n      0x00\n      add\n      sload\n        /* \"src/TinyLend.sol\":3675:3703  a.supplyShares * m.supplyAcc */\n      tag_105\n      swap2\n      swap1\n      tag_50\n      jump\t// in\n    tag_105:\n        /* \"src/TinyLend.sol\":3675:3709  a.supplyShares * m.supplyAcc / RAY */\n      tag_106\n      swap2\n      swap1\n      tag_52\n      jump\t// in\n    tag_106:\n        /* \"src/TinyLend.sol\":3668:3709  return a.supplyShares * m.supplyAcc / RAY */\n      swap3\n      pop\n      pop\n      pop\n        /* \"src/TinyLend.sol\":3486:3716  function suppliedUnderlying(address u, address col) external view returns (uint256) {... */\n      swap3\n      swap2\n      pop\n      pop\n      jump\t// out\n        /* \"src/TinyLend.sol\":683:735  mapping(address collateral => Market) public markets */\n    tag_31:\n      mstore(0x20, 0x00)\n      dup1\n      0x00\n      mstore\n      keccak256(0x00, 0x40)\n      0x00\n      swap2\n      pop\n      swap1\n      pop\n      dup1\n      0x00\n      add\n      sload\n      swap1\n      dup1\n      0x01\n      add\n      sload\n      swap1\n      dup1\n      0x02\n      add\n      sload\n      swap1\n      dup1\n      0x03\n      add\n      sload\n      swap1\n      dup1\n      0x04\n      add\n      sload\n      swap1\n      dup1\n      0x05\n      add\n      sload\n      swap1\n      pop\n      dup7\n      jump\t// out\n        /* \"src/TinyLend.sol\":741:820  mapping(address user => mapping(address collateral => Account)) public accounts */\n    tag_36:\n      mstore(0x20, 0x01)\n      dup2\n      0x00\n      mstore\n      mstore(0x20, keccak256(0x00, 0x40))\n      dup1\n      0x00\n      mstore\n      keccak256(0x00, 0x40)\n      0x00\n      swap2\n      pop\n      swap2\n      pop\n      pop\n      dup1\n      0x00\n      add\n      sload\n      swap1\n      dup1\n      0x01\n      add\n      sload\n      swap1\n      pop\n      dup3\n      jump\t// out\n        /* \"src/TinyLend.sol\":1455:1903  function withdraw(address col, uint256 amt) external {... */\n    tag_41:\n        /* \"src/TinyLend.sol\":1518:1530  _accrue(col) */\n      tag_108\n        /* \"src/TinyLend.sol\":1526:1529  col */\n      dup3\n        /* \"src/TinyLend.sol\":1518:1525  _accrue */\n      tag_48\n        /* \"src/TinyLend.sol\":1518:1530  _accrue(col) */\n      jump\t// in\n    tag_108:\n        /* \"src/TinyLend.sol\":1541:1558  Market  storage m */\n      0x00\n        /* \"src/TinyLend.sol\":1561:1568  markets */\n      0x00\n        /* \"src/TinyLend.sol\":1561:1573  markets[col] */\n      0x00\n        /* \"src/TinyLend.sol\":1569:1572  col */\n      dup5\n        /* \"src/TinyLend.sol\":1561:1573  markets[col] */\n      0xffffffffffffffffffffffffffffffffffffffff\n      and\n      0xffffffffffffffffffffffffffffffffffffffff\n      and\n      dup2\n      mstore\n      0x20\n      add\n      swap1\n      dup2\n      mstore\n      0x20\n      add\n      0x00\n      keccak256\n        /* \"src/TinyLend.sol\":1541:1573  Market  storage m = markets[col] */\n      swap1\n      pop\n        /* \"src/TinyLend.sol\":1583:1600  Account storage a */\n      0x00\n        /* \"src/TinyLend.sol\":1603:1611  accounts */\n      0x01\n        /* \"src/TinyLend.sol\":1603:1623  accounts[msg.sender] */\n      0x00\n        /* \"src/TinyLend.sol\":1612:1622  msg.sender */\n      caller\n        /* \"src/TinyLend.sol\":1603:1623  accounts[msg.sender] */\n      0xffffffffffffffffffffffffffffffffffffffff\n      and\n      0xffffffffffffffffffffffffffffffffffffffff\n      and\n      dup2\n      mstore\n      0x20\n      add\n      swap1\n      dup2\n      mstore\n      0x20\n      add\n      0x00\n      keccak256\n        /* \"src/TinyLend.sol\":1603:1628  accounts[msg.sender][col] */\n      0x00\n        /* \"src/TinyLend.sol\":1624:1627  col */\n      dup6\n        /* \"src/TinyLend.sol\":1603:1628  accounts[msg.sender][col] */\n      0xffffffffffffffffffffffffffffffffffffffff\n      and\n      0xffffffffffffffffffffffffffffffffffffffff\n      and\n      dup2\n      mstore\n      0x20\n      add\n      swap1\n      dup2\n      mstore\n      0x20\n      add\n      0x00\n      keccak256\n        /* \"src/TinyLend.sol\":1583:1628  Account storage a = accounts[msg.sender][col] */\n      swap1\n      pop\n        /* \"src/TinyLend.sol\":1639:1653  uint256 shares */\n      0x00\n        /* \"src/TinyLend.sol\":1688:1689  m */\n      dup3\n        /* \"src/TinyLend.sol\":1688:1699  m.supplyAcc */\n      0x00\n      add\n      sload\n        /* \"src/TinyLend.sol\":1683:1684  1 */\n      0x01\n        /* \"src/TinyLend.sol\":1669:1670  m */\n      dup5\n        /* \"src/TinyLend.sol\":1669:1680  m.supplyAcc */\n      0x00\n      add\n      sload\n        /* \"src/TinyLend.sol\":239:243  1e27 */\n      0x033b2e3c9fd0803ce8000000\n        /* \"src/TinyLend.sol\":1657:1660  amt */\n      dup8\n        /* \"src/TinyLend.sol\":1657:1666  amt * RAY */\n      tag_109\n      swap2\n      swap1\n      tag_50\n      jump\t// in\n    tag_109:\n        /* \"src/TinyLend.sol\":1657:1680  amt * RAY + m.supplyAcc */\n      tag_110\n      swap2\n      swap1\n      tag_62\n      jump\t// in\n    tag_110:\n        /* \"src/TinyLend.sol\":1657:1684  amt * RAY + m.supplyAcc - 1 */\n      tag_111\n      swap2\n      swap1\n      tag_64\n      jump\t// in\n    tag_111:\n        /* \"src/TinyLend.sol\":1656:1699  (amt * RAY + m.supplyAcc - 1) / m.supplyAcc */\n      tag_112\n      swap2\n      swap1\n      tag_52\n      jump\t// in\n    tag_112:\n        /* \"src/TinyLend.sol\":1639:1699  uint256 shares = (amt * RAY + m.supplyAcc - 1) / m.supplyAcc */\n      swap1\n      pop\n        /* \"src/TinyLend.sol\":1744:1750  shares */\n      dup1\n        /* \"src/TinyLend.sol\":1721:1722  a */\n      dup3\n        /* \"src/TinyLend.sol\":1721:1735  a.supplyShares */\n      0x00\n      add\n      0x00\n        /* \"src/TinyLend.sol\":1721:1750  a.supplyShares      -= shares */\n      dup3\n      dup3\n      sload\n      tag_113\n      swap2\n      swap1\n      tag_64\n      jump\t// in\n    tag_113:\n      swap3\n      pop\n      pop\n      dup2\n      swap1\n      sstore\n      pop\n        /* \"src/TinyLend.sol\":1783:1789  shares */\n      dup1\n        /* \"src/TinyLend.sol\":1760:1761  m */\n      dup4\n        /* \"src/TinyLend.sol\":1760:1779  m.totalSupplyShares */\n      0x02\n      add\n      0x00\n        /* \"src/TinyLend.sol\":1760:1789  m.totalSupplyShares -= shares */\n      dup3\n      dup3\n      sload\n      tag_114\n      swap2\n      swap1\n      tag_64\n      jump\t// in\n    tag_114:\n      swap3\n      pop\n      pop\n      dup2\n      swap1\n      sstore\n      pop\n        /* \"src/TinyLend.sol\":1846:1849  col */\n      dup5\n        /* \"src/TinyLend.sol\":1839:1859  IERC20(col).transfer */\n      0xffffffffffffffffffffffffffffffffffffffff\n      and\n      0xa9059cbb\n        /* \"src/TinyLend.sol\":1860:1870  msg.sender */\n      caller\n        /* \"src/TinyLend.sol\":1872:1875  amt */\n      dup7\n        /* \"src/TinyLend.sol\":1839:1876  IERC20(col).transfer(msg.sender, amt) */\n      mload(0x40)\n      dup4\n      0xffffffff\n      and\n      0xe0\n      shl\n      dup2\n      mstore\n      0x04\n      add\n      tag_115\n      swap3\n      swap2\n      swap1\n      tag_98\n      jump\t// in\n    tag_115:\n      0x20\n      mload(0x40)\n      dup1\n      dup4\n      sub\n      dup2\n      0x00\n      dup8\n      gas\n      call\n      iszero\n      dup1\n      iszero\n      tag_117\n      jumpi\n      returndatacopy(0x00, 0x00, returndatasize)\n      revert(0x00, returndatasize)\n    tag_117:\n      pop\n      pop\n      pop\n      pop\n      mload(0x40)\n      returndatasize\n      not(0x1f)\n      0x1f\n      dup3\n      add\n      and\n      dup3\n      add\n      dup1\n      0x40\n      mstore\n      pop\n      dup2\n      add\n      swap1\n      tag_118\n      swap2\n      swap1\n      tag_74\n      jump\t// in\n    tag_118:\n        /* \"src/TinyLend.sol\":1831:1896  require(IERC20(col).transfer(msg.sender, amt), \"transfer failed\") */\n      tag_119\n      jumpi\n      mload(0x40)\n      0x08c379a000000000000000000000000000000000000000000000000000000000\n      dup2\n      mstore\n      0x04\n      add\n      tag_120\n      swap1\n      tag_77\n      jump\t// in\n    tag_120:\n      mload(0x40)\n      dup1\n      swap2\n      sub\n      swap1\n      revert\n    tag_119:\n        /* \"src/TinyLend.sol\":1508:1903  {... */\n      pop\n      pop\n      pop\n        /* \"src/TinyLend.sol\":1455:1903  function withdraw(address col, uint256 amt) external {... */\n      pop\n      pop\n      jump\t// out\n        /* \"src/TinyLend.sol\":3722:3952  function borrowedUnderlying(address u, address col) external view returns (uint256) {... */\n    tag_44:\n        /* \"src/TinyLend.sol\":3797:3804  uint256 */\n      0x00\n        /* \"src/TinyLend.sol\":3816:3833  Market  storage m */\n      0x00\n        /* \"src/TinyLend.sol\":3836:3843  markets */\n      0x00\n        /* \"src/TinyLend.sol\":3836:3848  markets[col] */\n      0x00\n        /* \"src/TinyLend.sol\":3844:3847  col */\n      dup5\n        /* \"src/TinyLend.sol\":3836:3848  markets[col] */\n      0xffffffffffffffffffffffffffffffffffffffff\n      and\n      0xffffffffffffffffffffffffffffffffffffffff\n      and\n      dup2\n      mstore\n      0x20\n      add\n      swap1\n      dup2\n      mstore\n      0x20\n      add\n      0x00\n      keccak256\n        /* \"src/TinyLend.sol\":3816:3848  Market  storage m = markets[col] */\n      swap1\n      pop\n        /* \"src/TinyLend.sol\":3858:3875  Account storage a */\n      0x00\n        /* \"src/TinyLend.sol\":3878:3886  accounts */\n      0x01\n        /* \"src/TinyLend.sol\":3878:3889  accounts[u] */\n      0x00\n        /* \"src/TinyLend.sol\":3887:3888  u */\n      dup7\n        /* \"src/TinyLend.sol\":3878:3889  accounts[u] */\n      0xffffffffffffffffffffffffffffffffffffffff\n      and\n      0xffffffffffffffffffffffffffffffffffffffff\n      and\n      dup2\n      mstore\n      0x20\n      add\n      swap1\n      dup2\n      mstore\n      0x20\n      add\n      0x00\n      keccak256\n        /* \"src/TinyLend.sol\":3878:3894  accounts[u][col] */\n      0x00\n        /* \"src/TinyLend.sol\":3890:3893  col */\n      dup6\n        /* \"src/TinyLend.sol\":3878:3894  accounts[u][col] */\n      0xffffffffffffffffffffffffffffffffffffffff\n      and\n      0xffffffffffffffffffffffffffffffffffffffff\n      and\n      dup2\n      mstore\n      0x20\n      add\n      swap1\n      dup2\n      mstore\n      0x20\n      add\n      0x00\n      keccak256\n        /* \"src/TinyLend.sol\":3858:3894  Account storage a = accounts[u][col] */\n      swap1\n      pop\n        /* \"src/TinyLend.sol\":239:243  1e27 */\n      0x033b2e3c9fd0803ce8000000\n        /* \"src/TinyLend.sol\":3928:3929  m */\n      dup3\n        /* \"src/TinyLend.sol\":3928:3939  m.borrowAcc */\n      0x01\n      add\n      sload\n        /* \"src/TinyLend.sol\":3911:3912  a */\n      dup3\n        /* \"src/TinyLend.sol\":3911:3925  a.borrowShares */\n      0x01\n      add\n      sload\n        /* \"src/TinyLend.sol\":3911:3939  a.borrowShares * m.borrowAcc */\n      tag_122\n      swap2\n      swap1\n      tag_50\n      jump\t// in\n    tag_122:\n        /* \"src/TinyLend.sol\":3911:3945  a.borrowShares * m.borrowAcc / RAY */\n      tag_123\n      swap2\n      swap1\n      tag_52\n      jump\t// in\n    tag_123:\n        /* \"src/TinyLend.sol\":3904:3945  return a.borrowShares * m.borrowAcc / RAY */\n      swap3\n      pop\n      pop\n      pop\n        /* \"src/TinyLend.sol\":3722:3952  function borrowedUnderlying(address u, address col) external view returns (uint256) {... */\n      swap3\n      swap2\n      pop\n      pop\n      jump\t// out\n        /* \"src/TinyLend.sol\":4014:5083  function _accrue(address col) internal { ... */\n    tag_48:\n        /* \"src/TinyLend.sol\":4065:4081  Market storage m */\n      0x00\n        /* \"src/TinyLend.sol\":4085:4092  markets */\n      0x00\n        /* \"src/TinyLend.sol\":4085:4097  markets[col] */\n      0x00\n        /* \"src/TinyLend.sol\":4093:4096  col */\n      dup4\n        /* \"src/TinyLend.sol\":4085:4097  markets[col] */\n      0xffffffffffffffffffffffffffffffffffffffff\n      and\n      0xffffffffffffffffffffffffffffffffffffffff\n      and\n      dup2\n      mstore\n      0x20\n      add\n      swap1\n      dup2\n      mstore\n      0x20\n      add\n      0x00\n      keccak256\n        /* \"src/TinyLend.sol\":4065:4097  Market storage m  = markets[col] */\n      swap1\n      pop\n        /* \"src/TinyLend.sol\":4178:4179  0 */\n      0x00\n        /* \"src/TinyLend.sol\":4161:4162  m */\n      dup2\n        /* \"src/TinyLend.sol\":4161:4174  m.lastAccrual */\n      0x05\n      add\n      sload\n        /* \"src/TinyLend.sol\":4161:4179  m.lastAccrual == 0 */\n      sub\n        /* \"src/TinyLend.sol\":4157:4299  if (m.lastAccrual == 0) {... */\n      tag_125\n      jumpi\n        /* \"src/TinyLend.sol\":239:243  1e27 */\n      0x033b2e3c9fd0803ce8000000\n        /* \"src/TinyLend.sol\":4195:4196  m */\n      dup2\n        /* \"src/TinyLend.sol\":4195:4206  m.supplyAcc */\n      0x00\n      add\n        /* \"src/TinyLend.sol\":4195:4212  m.supplyAcc = RAY */\n      dup2\n      swap1\n      sstore\n      pop\n        /* \"src/TinyLend.sol\":239:243  1e27 */\n      0x033b2e3c9fd0803ce8000000\n        /* \"src/TinyLend.sol\":4226:4227  m */\n      dup2\n        /* \"src/TinyLend.sol\":4226:4237  m.borrowAcc */\n      0x01\n      add\n        /* \"src/TinyLend.sol\":4226:4243  m.borrowAcc = RAY */\n      dup2\n      swap1\n      sstore\n      pop\n        /* \"src/TinyLend.sol\":4273:4288  block.timestamp */\n      timestamp\n        /* \"src/TinyLend.sol\":4257:4258  m */\n      dup2\n        /* \"src/TinyLend.sol\":4257:4270  m.lastAccrual */\n      0x05\n      add\n        /* \"src/TinyLend.sol\":4257:4288  m.lastAccrual = block.timestamp */\n      dup2\n      swap1\n      sstore\n      pop\n        /* \"src/TinyLend.sol\":4157:4299  if (m.lastAccrual == 0) {... */\n    tag_125:\n        /* \"src/TinyLend.sol\":4309:4321  uint256   dt */\n      0x00\n        /* \"src/TinyLend.sol\":4346:4347  m */\n      dup2\n        /* \"src/TinyLend.sol\":4346:4359  m.lastAccrual */\n      0x05\n      add\n      sload\n        /* \"src/TinyLend.sol\":4328:4343  block.timestamp */\n      timestamp\n        /* \"src/TinyLend.sol\":4328:4359  block.timestamp - m.lastAccrual */\n      tag_126\n      swap2\n      swap1\n      tag_64\n      jump\t// in\n    tag_126:\n        /* \"src/TinyLend.sol\":4309:4359  uint256   dt     = block.timestamp - m.lastAccrual */\n      swap1\n      pop\n        /* \"src/TinyLend.sol\":4379:4380  0 */\n      0x00\n        /* \"src/TinyLend.sol\":4373:4375  dt */\n      dup2\n        /* \"src/TinyLend.sol\":4373:4380  dt == 0 */\n      sub\n        /* \"src/TinyLend.sol\":4369:4389  if (dt == 0) return; */\n      tag_127\n      jumpi\n        /* \"src/TinyLend.sol\":4382:4389  return; */\n      pop\n      pop\n      jump(tag_124)\n        /* \"src/TinyLend.sol\":4369:4389  if (dt == 0) return; */\n    tag_127:\n        /* \"src/TinyLend.sol\":4452:4470  uint256 borrowRate */\n      0x00\n        /* \"src/TinyLend.sol\":4473:4492  _getBorrowRate(col) */\n      tag_128\n        /* \"src/TinyLend.sol\":4488:4491  col */\n      dup5\n        /* \"src/TinyLend.sol\":4473:4487  _getBorrowRate */\n      tag_129\n        /* \"src/TinyLend.sol\":4473:4492  _getBorrowRate(col) */\n      jump\t// in\n    tag_128:\n        /* \"src/TinyLend.sol\":4452:4492  uint256 borrowRate = _getBorrowRate(col) */\n      swap1\n      pop\n        /* \"src/TinyLend.sol\":4530:4544  uint256 factor */\n      0x00\n        /* \"src/TinyLend.sol\":4570:4572  dt */\n      dup3\n        /* \"src/TinyLend.sol\":4557:4567  borrowRate */\n      dup3\n        /* \"src/TinyLend.sol\":4557:4572  borrowRate * dt */\n      tag_130\n      swap2\n      swap1\n      tag_50\n      jump\t// in\n    tag_130:\n        /* \"src/TinyLend.sol\":239:243  1e27 */\n      0x033b2e3c9fd0803ce8000000\n        /* \"src/TinyLend.sol\":4551:4572  RAY + borrowRate * dt */\n      tag_131\n      swap2\n      swap1\n      tag_62\n      jump\t// in\n    tag_131:\n        /* \"src/TinyLend.sol\":4530:4572  uint256 factor     = RAY + borrowRate * dt */\n      swap1\n      pop\n        /* \"src/TinyLend.sol\":4610:4631  uint256 prevBorrowAcc */\n      0x00\n        /* \"src/TinyLend.sol\":4634:4635  m */\n      dup5\n        /* \"src/TinyLend.sol\":4634:4645  m.borrowAcc */\n      0x01\n      add\n      sload\n        /* \"src/TinyLend.sol\":4610:4645  uint256 prevBorrowAcc = m.borrowAcc */\n      swap1\n      pop\n        /* \"src/TinyLend.sol\":239:243  1e27 */\n      0x033b2e3c9fd0803ce8000000\n        /* \"src/TinyLend.sol\":4685:4691  factor */\n      dup3\n        /* \"src/TinyLend.sol\":4669:4682  prevBorrowAcc */\n      dup3\n        /* \"src/TinyLend.sol\":4669:4691  prevBorrowAcc * factor */\n      tag_132\n      swap2\n      swap1\n      tag_50\n      jump\t// in\n    tag_132:\n        /* \"src/TinyLend.sol\":4669:4697  prevBorrowAcc * factor / RAY */\n      tag_133\n      swap2\n      swap1\n      tag_52\n      jump\t// in\n    tag_133:\n        /* \"src/TinyLend.sol\":4655:4656  m */\n      dup6\n        /* \"src/TinyLend.sol\":4655:4666  m.borrowAcc */\n      0x01\n      add\n        /* \"src/TinyLend.sol\":4655:4697  m.borrowAcc = prevBorrowAcc * factor / RAY */\n      dup2\n      swap1\n      sstore\n      pop\n        /* \"src/TinyLend.sol\":4725:4744  uint256 deltaBorrow */\n      0x00\n        /* \"src/TinyLend.sol\":239:243  1e27 */\n      0x033b2e3c9fd0803ce8000000\n      dup1\n        /* \"src/TinyLend.sol\":4786:4792  factor */\n      dup5\n        /* \"src/TinyLend.sol\":4786:4798  factor - RAY */\n      tag_134\n      swap2\n      swap1\n      tag_64\n      jump\t// in\n    tag_134:\n        /* \"src/TinyLend.sol\":4759:4760  m */\n      dup8\n        /* \"src/TinyLend.sol\":4759:4782  m.totalBorrowUnderlying */\n      0x04\n      add\n      sload\n        /* \"src/TinyLend.sol\":4759:4799  m.totalBorrowUnderlying * (factor - RAY) */\n      tag_135\n      swap2\n      swap1\n      tag_50\n      jump\t// in\n    tag_135:\n        /* \"src/TinyLend.sol\":4759:4805  m.totalBorrowUnderlying * (factor - RAY) / RAY */\n      tag_136\n      swap2\n      swap1\n      tag_52\n      jump\t// in\n    tag_136:\n        /* \"src/TinyLend.sol\":4725:4805  uint256 deltaBorrow =... */\n      swap1\n      pop\n        /* \"src/TinyLend.sol\":4859:4870  deltaBorrow */\n      dup1\n        /* \"src/TinyLend.sol\":4832:4833  m */\n      dup7\n        /* \"src/TinyLend.sol\":4832:4855  m.totalBorrowUnderlying */\n      0x04\n      add\n      0x00\n        /* \"src/TinyLend.sol\":4832:4870  m.totalBorrowUnderlying += deltaBorrow */\n      dup3\n      dup3\n      sload\n      tag_137\n      swap2\n      swap1\n      tag_62\n      jump\t// in\n    tag_137:\n      swap3\n      pop\n      pop\n      dup2\n      swap1\n      sstore\n      pop\n        /* \"src/TinyLend.sol\":4953:4954  0 */\n      0x00\n        /* \"src/TinyLend.sol\":4931:4932  m */\n      dup7\n        /* \"src/TinyLend.sol\":4931:4950  m.totalSupplyShares */\n      0x02\n      add\n      sload\n        /* \"src/TinyLend.sol\":4931:4954  m.totalSupplyShares > 0 */\n      gt\n        /* \"src/TinyLend.sol\":4927:5035  if (m.totalSupplyShares > 0) {... */\n      iszero\n      tag_138\n      jumpi\n        /* \"src/TinyLend.sol\":5005:5006  m */\n      dup6\n        /* \"src/TinyLend.sol\":5005:5024  m.totalSupplyShares */\n      0x02\n      add\n      sload\n        /* \"src/TinyLend.sol\":239:243  1e27 */\n      0x033b2e3c9fd0803ce8000000\n        /* \"src/TinyLend.sol\":4985:4996  deltaBorrow */\n      dup3\n        /* \"src/TinyLend.sol\":4985:5002  deltaBorrow * RAY */\n      tag_139\n      swap2\n      swap1\n      tag_50\n      jump\t// in\n    tag_139:\n        /* \"src/TinyLend.sol\":4985:5024  deltaBorrow * RAY / m.totalSupplyShares */\n      tag_140\n      swap2\n      swap1\n      tag_52\n      jump\t// in\n    tag_140:\n        /* \"src/TinyLend.sol\":4970:4971  m */\n      dup7\n        /* \"src/TinyLend.sol\":4970:4981  m.supplyAcc */\n      0x00\n      add\n      0x00\n        /* \"src/TinyLend.sol\":4970:5024  m.supplyAcc += deltaBorrow * RAY / m.totalSupplyShares */\n      dup3\n      dup3\n      sload\n      tag_141\n      swap2\n      swap1\n      tag_62\n      jump\t// in\n    tag_141:\n      swap3\n      pop\n      pop\n      dup2\n      swap1\n      sstore\n      pop\n        /* \"src/TinyLend.sol\":4927:5035  if (m.totalSupplyShares > 0) {... */\n    tag_138:\n        /* \"src/TinyLend.sol\":5061:5076  block.timestamp */\n      timestamp\n        /* \"src/TinyLend.sol\":5045:5046  m */\n      dup7\n        /* \"src/TinyLend.sol\":5045:5058  m.lastAccrual */\n      0x05\n      add\n        /* \"src/TinyLend.sol\":5045:5076  m.lastAccrual = block.timestamp */\n      dup2\n      swap1\n      sstore\n      pop\n        /* \"src/TinyLend.sol\":4053:5083  { ... */\n      pop\n      pop\n      pop\n      pop\n      pop\n      pop\n        /* \"src/TinyLend.sol\":4014:5083  function _accrue(address col) internal { ... */\n    tag_124:\n      pop\n      jump\t// out\n        /* \"src/TinyLend.sol\":5146:5298  function _getBorrowRate(address) internal pure returns (uint256) {... */\n    tag_129:\n        /* \"src/TinyLend.sol\":5202:5209  uint256 */\n      0x00\n        /* \"src/TinyLend.sol\":5244:5252  365 days */\n      0x01e13380\n        /* \"src/TinyLend.sol\":5236:5240  5e24 */\n      0x0422ca8b0a00a425000000\n        /* \"src/TinyLend.sol\":5228:5252  uint256(5e24) / 365 days */\n      tag_143\n      swap2\n      swap1\n      tag_52\n      jump\t// in\n    tag_143:\n        /* \"src/TinyLend.sol\":5221:5252  return uint256(5e24) / 365 days */\n      swap1\n      pop\n        /* \"src/TinyLend.sol\":5146:5298  function _getBorrowRate(address) internal pure returns (uint256) {... */\n      swap2\n      swap1\n      pop\n      jump\t// out\n        /* \"#utility.yul\":88:205   */\n    tag_145:\n        /* \"#utility.yul\":197:198   */\n      0x00\n        /* \"#utility.yul\":194:195   */\n      0x00\n        /* \"#utility.yul\":187:199   */\n      revert\n        /* \"#utility.yul\":334:460   */\n    tag_147:\n        /* \"#utility.yul\":371:378   */\n      0x00\n        /* \"#utility.yul\":411:453   */\n      0xffffffffffffffffffffffffffffffffffffffff\n        /* \"#utility.yul\":404:409   */\n      dup3\n        /* \"#utility.yul\":400:454   */\n      and\n        /* \"#utility.yul\":389:454   */\n      swap1\n      pop\n        /* \"#utility.yul\":334:460   */\n      swap2\n      swap1\n      pop\n      jump\t// out\n        /* \"#utility.yul\":466:562   */\n    tag_148:\n        /* \"#utility.yul\":503:510   */\n      0x00\n        /* \"#utility.yul\":532:556   */\n      tag_174\n        /* \"#utility.yul\":550:555   */\n      dup3\n        /* \"#utility.yul\":532:556   */\n      tag_147\n      jump\t// in\n    tag_174:\n        /* \"#utility.yul\":521:556   */\n      swap1\n      pop\n        /* \"#utility.yul\":466:562   */\n      swap2\n      swap1\n      pop\n      jump\t// out\n        /* \"#utility.yul\":568:690   */\n    tag_149:\n        /* \"#utility.yul\":641:665   */\n      tag_176\n        /* \"#utility.yul\":659:664   */\n      dup2\n        /* \"#utility.yul\":641:665   */\n      tag_148\n      jump\t// in\n    tag_176:\n        /* \"#utility.yul\":634:639   */\n      dup2\n        /* \"#utility.yul\":631:666   */\n      eq\n        /* \"#utility.yul\":621:684   */\n      tag_177\n      jumpi\n        /* \"#utility.yul\":680:681   */\n      0x00\n        /* \"#utility.yul\":677:678   */\n      0x00\n        /* \"#utility.yul\":670:682   */\n      revert\n        /* \"#utility.yul\":621:684   */\n    tag_177:\n        /* \"#utility.yul\":568:690   */\n      pop\n      jump\t// out\n        /* \"#utility.yul\":696:835   */\n    tag_150:\n        /* \"#utility.yul\":742:747   */\n      0x00\n        /* \"#utility.yul\":780:786   */\n      dup2\n        /* \"#utility.yul\":767:787   */\n      calldataload\n        /* \"#utility.yul\":758:787   */\n      swap1\n      pop\n        /* \"#utility.yul\":796:829   */\n      tag_179\n        /* \"#utility.yul\":823:828   */\n      dup2\n        /* \"#utility.yul\":796:829   */\n      tag_149\n      jump\t// in\n    tag_179:\n        /* \"#utility.yul\":696:835   */\n      swap3\n      swap2\n      pop\n      pop\n      jump\t// out\n        /* \"#utility.yul\":841:918   */\n    tag_151:\n        /* \"#utility.yul\":878:885   */\n      0x00\n        /* \"#utility.yul\":907:912   */\n      dup2\n        /* \"#utility.yul\":896:912   */\n      swap1\n      pop\n        /* \"#utility.yul\":841:918   */\n      swap2\n      swap1\n      pop\n      jump\t// out\n        /* \"#utility.yul\":924:1046   */\n    tag_152:\n        /* \"#utility.yul\":997:1021   */\n      tag_182\n        /* \"#utility.yul\":1015:1020   */\n      dup2\n        /* \"#utility.yul\":997:1021   */\n      tag_151\n      jump\t// in\n    tag_182:\n        /* \"#utility.yul\":990:995   */\n      dup2\n        /* \"#utility.yul\":987:1022   */\n      eq\n        /* \"#utility.yul\":977:1040   */\n      tag_183\n      jumpi\n        /* \"#utility.yul\":1036:1037   */\n      0x00\n        /* \"#utility.yul\":1033:1034   */\n      0x00\n        /* \"#utility.yul\":1026:1038   */\n      revert\n        /* \"#utility.yul\":977:1040   */\n    tag_183:\n        /* \"#utility.yul\":924:1046   */\n      pop\n      jump\t// out\n        /* \"#utility.yul\":1052:1191   */\n    tag_153:\n        /* \"#utility.yul\":1098:1103   */\n      0x00\n        /* \"#utility.yul\":1136:1142   */\n      dup2\n        /* \"#utility.yul\":1123:1143   */\n      calldataload\n        /* \"#utility.yul\":1114:1143   */\n      swap1\n      pop\n        /* \"#utility.yul\":1152:1185   */\n      tag_185\n        /* \"#utility.yul\":1179:1184   */\n      dup2\n        /* \"#utility.yul\":1152:1185   */\n      tag_152\n      jump\t// in\n    tag_185:\n        /* \"#utility.yul\":1052:1191   */\n      swap3\n      swap2\n      pop\n      pop\n      jump\t// out\n        /* \"#utility.yul\":1197:1671   */\n    tag_14:\n        /* \"#utility.yul\":1265:1271   */\n      0x00\n        /* \"#utility.yul\":1273:1279   */\n      0x00\n        /* \"#utility.yul\":1322:1324   */\n      0x40\n        /* \"#utility.yul\":1310:1319   */\n      dup4\n        /* \"#utility.yul\":1301:1308   */\n      dup6\n        /* \"#utility.yul\":1297:1320   */\n      sub\n        /* \"#utility.yul\":1293:1325   */\n      slt\n        /* \"#utility.yul\":1290:1409   */\n      iszero\n      tag_187\n      jumpi\n        /* \"#utility.yul\":1328:1407   */\n      tag_188\n      tag_145\n      jump\t// in\n    tag_188:\n        /* \"#utility.yul\":1290:1409   */\n    tag_187:\n        /* \"#utility.yul\":1448:1449   */\n      0x00\n        /* \"#utility.yul\":1473:1526   */\n      tag_189\n        /* \"#utility.yul\":1518:1525   */\n      dup6\n        /* \"#utility.yul\":1509:1515   */\n      dup3\n        /* \"#utility.yul\":1498:1507   */\n      dup7\n        /* \"#utility.yul\":1494:1516   */\n      add\n        /* \"#utility.yul\":1473:1526   */\n      tag_150\n      jump\t// in\n    tag_189:\n        /* \"#utility.yul\":1463:1526   */\n      swap3\n      pop\n        /* \"#utility.yul\":1419:1536   */\n      pop\n        /* \"#utility.yul\":1575:1577   */\n      0x20\n        /* \"#utility.yul\":1601:1654   */\n      tag_190\n        /* \"#utility.yul\":1646:1653   */\n      dup6\n        /* \"#utility.yul\":1637:1643   */\n      dup3\n        /* \"#utility.yul\":1626:1635   */\n      dup7\n        /* \"#utility.yul\":1622:1644   */\n      add\n        /* \"#utility.yul\":1601:1654   */\n      tag_153\n      jump\t// in\n    tag_190:\n        /* \"#utility.yul\":1591:1654   */\n      swap2\n      pop\n        /* \"#utility.yul\":1546:1664   */\n      pop\n        /* \"#utility.yul\":1197:1671   */\n      swap3\n      pop\n      swap3\n      swap1\n      pop\n      jump\t// out\n        /* \"#utility.yul\":1677:2151   */\n    tag_24:\n        /* \"#utility.yul\":1745:1751   */\n      0x00\n        /* \"#utility.yul\":1753:1759   */\n      0x00\n        /* \"#utility.yul\":1802:1804   */\n      0x40\n        /* \"#utility.yul\":1790:1799   */\n      dup4\n        /* \"#utility.yul\":1781:1788   */\n      dup6\n        /* \"#utility.yul\":1777:1800   */\n      sub\n        /* \"#utility.yul\":1773:1805   */\n      slt\n        /* \"#utility.yul\":1770:1889   */\n      iszero\n      tag_192\n      jumpi\n        /* \"#utility.yul\":1808:1887   */\n      tag_193\n      tag_145\n      jump\t// in\n    tag_193:\n        /* \"#utility.yul\":1770:1889   */\n    tag_192:\n        /* \"#utility.yul\":1928:1929   */\n      0x00\n        /* \"#utility.yul\":1953:2006   */\n      tag_194\n        /* \"#utility.yul\":1998:2005   */\n      dup6\n        /* \"#utility.yul\":1989:1995   */\n      dup3\n        /* \"#utility.yul\":1978:1987   */\n      dup7\n        /* \"#utility.yul\":1974:1996   */\n      add\n        /* \"#utility.yul\":1953:2006   */\n      tag_150\n      jump\t// in\n    tag_194:\n        /* \"#utility.yul\":1943:2006   */\n      swap3\n      pop\n        /* \"#utility.yul\":1899:2016   */\n      pop\n        /* \"#utility.yul\":2055:2057   */\n      0x20\n        /* \"#utility.yul\":2081:2134   */\n      tag_195\n        /* \"#utility.yul\":2126:2133   */\n      dup6\n        /* \"#utility.yul\":2117:2123   */\n      dup3\n        /* \"#utility.yul\":2106:2115   */\n      dup7\n        /* \"#utility.yul\":2102:2124   */\n      add\n        /* \"#utility.yul\":2081:2134   */\n      tag_150\n      jump\t// in\n    tag_195:\n        /* \"#utility.yul\":2071:2134   */\n      swap2\n      pop\n        /* \"#utility.yul\":2026:2144   */\n      pop\n        /* \"#utility.yul\":1677:2151   */\n      swap3\n      pop\n      swap3\n      swap1\n      pop\n      jump\t// out\n        /* \"#utility.yul\":2157:2275   */\n    tag_154:\n        /* \"#utility.yul\":2244:2268   */\n      tag_197\n        /* \"#utility.yul\":2262:2267   */\n      dup2\n        /* \"#utility.yul\":2244:2268   */\n      tag_151\n      jump\t// in\n    tag_197:\n        /* \"#utility.yul\":2239:2242   */\n      dup3\n        /* \"#utility.yul\":2232:2269   */\n      mstore\n        /* \"#utility.yul\":2157:2275   */\n      pop\n      pop\n      jump\t// out\n        /* \"#utility.yul\":2281:2503   */\n    tag_27:\n        /* \"#utility.yul\":2374:2378   */\n      0x00\n        /* \"#utility.yul\":2412:2414   */\n      0x20\n        /* \"#utility.yul\":2401:2410   */\n      dup3\n        /* \"#utility.yul\":2397:2415   */\n      add\n        /* \"#utility.yul\":2389:2415   */\n      swap1\n      pop\n        /* \"#utility.yul\":2425:2496   */\n      tag_199\n        /* \"#utility.yul\":2493:2494   */\n      0x00\n        /* \"#utility.yul\":2482:2491   */\n      dup4\n        /* \"#utility.yul\":2478:2495   */\n      add\n        /* \"#utility.yul\":2469:2475   */\n      dup5\n        /* \"#utility.yul\":2425:2496   */\n      tag_154\n      jump\t// in\n    tag_199:\n        /* \"#utility.yul\":2281:2503   */\n      swap3\n      swap2\n      pop\n      pop\n      jump\t// out\n        /* \"#utility.yul\":2509:2838   */\n    tag_30:\n        /* \"#utility.yul\":2568:2574   */\n      0x00\n        /* \"#utility.yul\":2617:2619   */\n      0x20\n        /* \"#utility.yul\":2605:2614   */\n      dup3\n        /* \"#utility.yul\":2596:2603   */\n      dup5\n        /* \"#utility.yul\":2592:2615   */\n      sub\n        /* \"#utility.yul\":2588:2620   */\n      slt\n        /* \"#utility.yul\":2585:2704   */\n      iszero\n      tag_201\n      jumpi\n        /* \"#utility.yul\":2623:2702   */\n      tag_202\n      tag_145\n      jump\t// in\n    tag_202:\n        /* \"#utility.yul\":2585:2704   */\n    tag_201:\n        /* \"#utility.yul\":2743:2744   */\n      0x00\n        /* \"#utility.yul\":2768:2821   */\n      tag_203\n        /* \"#utility.yul\":2813:2820   */\n      dup5\n        /* \"#utility.yul\":2804:2810   */\n      dup3\n        /* \"#utility.yul\":2793:2802   */\n      dup6\n        /* \"#utility.yul\":2789:2811   */\n      add\n        /* \"#utility.yul\":2768:2821   */\n      tag_150\n      jump\t// in\n    tag_203:\n        /* \"#utility.yul\":2758:2821   */\n      swap2\n      pop\n        /* \"#utility.yul\":2714:2831   */\n      pop\n        /* \"#utility.yul\":2509:2838   */\n      swap3\n      swap2\n      pop\n      pop\n      jump\t// out\n        /* \"#utility.yul\":2844:3619   */\n    tag_33:\n        /* \"#utility.yul\":3077:3081   */\n      0x00\n        /* \"#utility.yul\":3115:3118   */\n      0xc0\n        /* \"#utility.yul\":3104:3113   */\n      dup3\n        /* \"#utility.yul\":3100:3119   */\n      add\n        /* \"#utility.yul\":3092:3119   */\n      swap1\n      pop\n        /* \"#utility.yul\":3129:3200   */\n      tag_205\n        /* \"#utility.yul\":3197:3198   */\n      0x00\n        /* \"#utility.yul\":3186:3195   */\n      dup4\n        /* \"#utility.yul\":3182:3199   */\n      add\n        /* \"#utility.yul\":3173:3179   */\n      dup10\n        /* \"#utility.yul\":3129:3200   */\n      tag_154\n      jump\t// in\n    tag_205:\n        /* \"#utility.yul\":3210:3282   */\n      tag_206\n        /* \"#utility.yul\":3278:3280   */\n      0x20\n        /* \"#utility.yul\":3267:3276   */\n      dup4\n        /* \"#utility.yul\":3263:3281   */\n      add\n        /* \"#utility.yul\":3254:3260   */\n      dup9\n        /* \"#utility.yul\":3210:3282   */\n      tag_154\n      jump\t// in\n    tag_206:\n        /* \"#utility.yul\":3292:3364   */\n      tag_207\n        /* \"#utility.yul\":3360:3362   */\n      0x40\n        /* \"#utility.yul\":3349:3358   */\n      dup4\n        /* \"#utility.yul\":3345:3363   */\n      add\n        /* \"#utility.yul\":3336:3342   */\n      dup8\n        /* \"#utility.yul\":3292:3364   */\n      tag_154\n      jump\t// in\n    tag_207:\n        /* \"#utility.yul\":3374:3446   */\n      tag_208\n        /* \"#utility.yul\":3442:3444   */\n      0x60\n        /* \"#utility.yul\":3431:3440   */\n      dup4\n        /* \"#utility.yul\":3427:3445   */\n      add\n        /* \"#utility.yul\":3418:3424   */\n      dup7\n        /* \"#utility.yul\":3374:3446   */\n      tag_154\n      jump\t// in\n    tag_208:\n        /* \"#utility.yul\":3456:3529   */\n      tag_209\n        /* \"#utility.yul\":3524:3527   */\n      0x80\n        /* \"#utility.yul\":3513:3522   */\n      dup4\n        /* \"#utility.yul\":3509:3528   */\n      add\n        /* \"#utility.yul\":3500:3506   */\n      dup6\n        /* \"#utility.yul\":3456:3529   */\n      tag_154\n      jump\t// in\n    tag_209:\n        /* \"#utility.yul\":3539:3612   */\n      tag_210\n        /* \"#utility.yul\":3607:3610   */\n      0xa0\n        /* \"#utility.yul\":3596:3605   */\n      dup4\n        /* \"#utility.yul\":3592:3611   */\n      add\n        /* \"#utility.yul\":3583:3589   */\n      dup5\n        /* \"#utility.yul\":3539:3612   */\n      tag_154\n      jump\t// in\n    tag_210:\n        /* \"#utility.yul\":2844:3619   */\n      swap8\n      swap7\n      pop\n      pop\n      pop\n      pop\n      pop\n      pop\n      pop\n      jump\t// out\n        /* \"#utility.yul\":3625:3957   */\n    tag_38:\n        /* \"#utility.yul\":3746:3750   */\n      0x00\n        /* \"#utility.yul\":3784:3786   */\n      0x40\n        /* \"#utility.yul\":3773:3782   */\n      dup3\n        /* \"#utility.yul\":3769:3787   */\n      add\n        /* \"#utility.yul\":3761:3787   */\n      swap1\n      pop\n        /* \"#utility.yul\":3797:3868   */\n      tag_212\n        /* \"#utility.yul\":3865:3866   */\n      0x00\n        /* \"#utility.yul\":3854:3863   */\n      dup4\n        /* \"#utility.yul\":3850:3867   */\n      add\n        /* \"#utility.yul\":3841:3847   */\n      dup6\n        /* \"#utility.yul\":3797:3868   */\n      tag_154\n      jump\t// in\n    tag_212:\n        /* \"#utility.yul\":3878:3950   */\n      tag_213\n        /* \"#utility.yul\":3946:3948   */\n      0x20\n        /* \"#utility.yul\":3935:3944   */\n      dup4\n        /* \"#utility.yul\":3931:3949   */\n      add\n        /* \"#utility.yul\":3922:3928   */\n      dup5\n        /* \"#utility.yul\":3878:3950   */\n      tag_154\n      jump\t// in\n    tag_213:\n        /* \"#utility.yul\":3625:3957   */\n      swap4\n      swap3\n      pop\n      pop\n      pop\n      jump\t// out\n        /* \"#utility.yul\":3963:4143   */\n    tag_155:\n        /* \"#utility.yul\":4011:4088   */\n      0x4e487b7100000000000000000000000000000000000000000000000000000000\n        /* \"#utility.yul\":4008:4009   */\n      0x00\n        /* \"#utility.yul\":4001:4089   */\n      mstore\n        /* \"#utility.yul\":4108:4112   */\n      0x11\n        /* \"#utility.yul\":4105:4106   */\n      0x04\n        /* \"#utility.yul\":4098:4113   */\n      mstore\n        /* \"#utility.yul\":4132:4136   */\n      0x24\n        /* \"#utility.yul\":4129:4130   */\n      0x00\n        /* \"#utility.yul\":4122:4137   */\n      revert\n        /* \"#utility.yul\":4149:4559   */\n    tag_50:\n        /* \"#utility.yul\":4189:4196   */\n      0x00\n        /* \"#utility.yul\":4212:4232   */\n      tag_216\n        /* \"#utility.yul\":4230:4231   */\n      dup3\n        /* \"#utility.yul\":4212:4232   */\n      tag_151\n      jump\t// in\n    tag_216:\n        /* \"#utility.yul\":4207:4232   */\n      swap2\n      pop\n        /* \"#utility.yul\":4246:4266   */\n      tag_217\n        /* \"#utility.yul\":4264:4265   */\n      dup4\n        /* \"#utility.yul\":4246:4266   */\n      tag_151\n      jump\t// in\n    tag_217:\n        /* \"#utility.yul\":4241:4266   */\n      swap3\n      pop\n        /* \"#utility.yul\":4301:4302   */\n      dup3\n        /* \"#utility.yul\":4298:4299   */\n      dup3\n        /* \"#utility.yul\":4294:4303   */\n      mul\n        /* \"#utility.yul\":4323:4353   */\n      tag_218\n        /* \"#utility.yul\":4341:4352   */\n      dup2\n        /* \"#utility.yul\":4323:4353   */\n      tag_151\n      jump\t// in\n    tag_218:\n        /* \"#utility.yul\":4312:4353   */\n      swap2\n      pop\n        /* \"#utility.yul\":4502:4503   */\n      dup3\n        /* \"#utility.yul\":4493:4500   */\n      dup3\n        /* \"#utility.yul\":4489:4504   */\n      div\n        /* \"#utility.yul\":4486:4487   */\n      dup5\n        /* \"#utility.yul\":4483:4505   */\n      eq\n        /* \"#utility.yul\":4463:4464   */\n      dup4\n        /* \"#utility.yul\":4456:4465   */\n      iszero\n        /* \"#utility.yul\":4436:4519   */\n      or\n        /* \"#utility.yul\":4413:4552   */\n      tag_219\n      jumpi\n        /* \"#utility.yul\":4532:4550   */\n      tag_220\n      tag_155\n      jump\t// in\n    tag_220:\n        /* \"#utility.yul\":4413:4552   */\n    tag_219:\n        /* \"#utility.yul\":4197:4559   */\n      pop\n        /* \"#utility.yul\":4149:4559   */\n      swap3\n      swap2\n      pop\n      pop\n      jump\t// out\n        /* \"#utility.yul\":4565:4745   */\n    tag_156:\n        /* \"#utility.yul\":4613:4690   */\n      0x4e487b7100000000000000000000000000000000000000000000000000000000\n        /* \"#utility.yul\":4610:4611   */\n      0x00\n        /* \"#utility.yul\":4603:4691   */\n      mstore\n        /* \"#utility.yul\":4710:4714   */\n      0x12\n        /* \"#utility.yul\":4707:4708   */\n      0x04\n        /* \"#utility.yul\":4700:4715   */\n      mstore\n        /* \"#utility.yul\":4734:4738   */\n      0x24\n        /* \"#utility.yul\":4731:4732   */\n      0x00\n        /* \"#utility.yul\":4724:4739   */\n      revert\n        /* \"#utility.yul\":4751:4936   */\n    tag_52:\n        /* \"#utility.yul\":4791:4792   */\n      0x00\n        /* \"#utility.yul\":4808:4828   */\n      tag_223\n        /* \"#utility.yul\":4826:4827   */\n      dup3\n        /* \"#utility.yul\":4808:4828   */\n      tag_151\n      jump\t// in\n    tag_223:\n        /* \"#utility.yul\":4803:4828   */\n      swap2\n      pop\n        /* \"#utility.yul\":4842:4862   */\n      tag_224\n        /* \"#utility.yul\":4860:4861   */\n      dup4\n        /* \"#utility.yul\":4842:4862   */\n      tag_151\n      jump\t// in\n    tag_224:\n        /* \"#utility.yul\":4837:4862   */\n      swap3\n      pop\n        /* \"#utility.yul\":4881:4882   */\n      dup3\n        /* \"#utility.yul\":4871:4906   */\n      tag_225\n      jumpi\n        /* \"#utility.yul\":4886:4904   */\n      tag_226\n      tag_156\n      jump\t// in\n    tag_226:\n        /* \"#utility.yul\":4871:4906   */\n    tag_225:\n        /* \"#utility.yul\":4928:4929   */\n      dup3\n        /* \"#utility.yul\":4925:4926   */\n      dup3\n        /* \"#utility.yul\":4921:4930   */\n      div\n        /* \"#utility.yul\":4916:4930   */\n      swap1\n      pop\n        /* \"#utility.yul\":4751:4936   */\n      swap3\n      swap2\n      pop\n      pop\n      jump\t// out\n        /* \"#utility.yul\":4942:5111   */\n    tag_157:\n        /* \"#utility.yul\":5026:5037   */\n      0x00\n        /* \"#utility.yul\":5060:5066   */\n      dup3\n        /* \"#utility.yul\":5055:5058   */\n      dup3\n        /* \"#utility.yul\":5048:5067   */\n      mstore\n        /* \"#utility.yul\":5100:5104   */\n      0x20\n        /* \"#utility.yul\":5095:5098   */\n      dup3\n        /* \"#utility.yul\":5091:5105   */\n      add\n        /* \"#utility.yul\":5076:5105   */\n      swap1\n      pop\n        /* \"#utility.yul\":4942:5111   */\n      swap3\n      swap2\n      pop\n      pop\n      jump\t// out\n        /* \"#utility.yul\":5117:5283   */\n    tag_158:\n        /* \"#utility.yul\":5257:5275   */\n      0x6e6f7468696e6720746f20726570617900000000000000000000000000000000\n        /* \"#utility.yul\":5253:5254   */\n      0x00\n        /* \"#utility.yul\":5245:5251   */\n      dup3\n        /* \"#utility.yul\":5241:5255   */\n      add\n        /* \"#utility.yul\":5234:5276   */\n      mstore\n        /* \"#utility.yul\":5117:5283   */\n      pop\n      jump\t// out\n        /* \"#utility.yul\":5289:5655   */\n    tag_159:\n        /* \"#utility.yul\":5431:5434   */\n      0x00\n        /* \"#utility.yul\":5452:5519   */\n      tag_230\n        /* \"#utility.yul\":5516:5518   */\n      0x10\n        /* \"#utility.yul\":5511:5514   */\n      dup4\n        /* \"#utility.yul\":5452:5519   */\n      tag_157\n      jump\t// in\n    tag_230:\n        /* \"#utility.yul\":5445:5519   */\n      swap2\n      pop\n        /* \"#utility.yul\":5528:5621   */\n      tag_231\n        /* \"#utility.yul\":5617:5620   */\n      dup3\n        /* \"#utility.yul\":5528:5621   */\n      tag_158\n      jump\t// in\n    tag_231:\n        /* \"#utility.yul\":5646:5648   */\n      0x20\n        /* \"#utility.yul\":5641:5644   */\n      dup3\n        /* \"#utility.yul\":5637:5649   */\n      add\n        /* \"#utility.yul\":5630:5649   */\n      swap1\n      pop\n        /* \"#utility.yul\":5289:5655   */\n      swap2\n      swap1\n      pop\n      jump\t// out\n        /* \"#utility.yul\":5661:6080   */\n    tag_56:\n        /* \"#utility.yul\":5827:5831   */\n      0x00\n        /* \"#utility.yul\":5865:5867   */\n      0x20\n        /* \"#utility.yul\":5854:5863   */\n      dup3\n        /* \"#utility.yul\":5850:5868   */\n      add\n        /* \"#utility.yul\":5842:5868   */\n      swap1\n      pop\n        /* \"#utility.yul\":5914:5923   */\n      dup2\n        /* \"#utility.yul\":5908:5912   */\n      dup2\n        /* \"#utility.yul\":5904:5924   */\n      sub\n        /* \"#utility.yul\":5900:5901   */\n      0x00\n        /* \"#utility.yul\":5889:5898   */\n      dup4\n        /* \"#utility.yul\":5885:5902   */\n      add\n        /* \"#utility.yul\":5878:5925   */\n      mstore\n        /* \"#utility.yul\":5942:6073   */\n      tag_233\n        /* \"#utility.yul\":6068:6072   */\n      dup2\n        /* \"#utility.yul\":5942:6073   */\n      tag_159\n      jump\t// in\n    tag_233:\n        /* \"#utility.yul\":5934:6073   */\n      swap1\n      pop\n        /* \"#utility.yul\":5661:6080   */\n      swap2\n      swap1\n      pop\n      jump\t// out\n        /* \"#utility.yul\":6086:6256   */\n    tag_160:\n        /* \"#utility.yul\":6226:6248   */\n      0x7265706179206d6f7265207468616e206f776564000000000000000000000000\n        /* \"#utility.yul\":6222:6223   */\n      0x00\n        /* \"#utility.yul\":6214:6220   */\n      dup3\n        /* \"#utility.yul\":6210:6224   */\n      add\n        /* \"#utility.yul\":6203:6249   */\n      mstore\n        /* \"#utility.yul\":6086:6256   */\n      pop\n      jump\t// out\n        /* \"#utility.yul\":6262:6628   */\n    tag_161:\n        /* \"#utility.yul\":6404:6407   */\n      0x00\n        /* \"#utility.yul\":6425:6492   */\n      tag_236\n        /* \"#utility.yul\":6489:6491   */\n      0x14\n        /* \"#utility.yul\":6484:6487   */\n      dup4\n        /* \"#utility.yul\":6425:6492   */\n      tag_157\n      jump\t// in\n    tag_236:\n        /* \"#utility.yul\":6418:6492   */\n      swap2\n      pop\n        /* \"#utility.yul\":6501:6594   */\n      tag_237\n        /* \"#utility.yul\":6590:6593   */\n      dup3\n        /* \"#utility.yul\":6501:6594   */\n      tag_160\n      jump\t// in\n    tag_237:\n        /* \"#utility.yul\":6619:6621   */\n      0x20\n        /* \"#utility.yul\":6614:6617   */\n      dup3\n        /* \"#utility.yul\":6610:6622   */\n      add\n        /* \"#utility.yul\":6603:6622   */\n      swap1\n      pop\n        /* \"#utility.yul\":6262:6628   */\n      swap2\n      swap1\n      pop\n      jump\t// out\n        /* \"#utility.yul\":6634:7053   */\n    tag_59:\n        /* \"#utility.yul\":6800:6804   */\n      0x00\n        /* \"#utility.yul\":6838:6840   */\n      0x20\n        /* \"#utility.yul\":6827:6836   */\n      dup3\n        /* \"#utility.yul\":6823:6841   */\n      add\n        /* \"#utility.yul\":6815:6841   */\n      swap1\n      pop\n        /* \"#utility.yul\":6887:6896   */\n      dup2\n        /* \"#utility.yul\":6881:6885   */\n      dup2\n        /* \"#utility.yul\":6877:6897   */\n      sub\n        /* \"#utility.yul\":6873:6874   */\n      0x00\n        /* \"#utility.yul\":6862:6871   */\n      dup4\n        /* \"#utility.yul\":6858:6875   */\n      add\n        /* \"#utility.yul\":6851:6898   */\n      mstore\n        /* \"#utility.yul\":6915:7046   */\n      tag_239\n        /* \"#utility.yul\":7041:7045   */\n      dup2\n        /* \"#utility.yul\":6915:7046   */\n      tag_161\n      jump\t// in\n    tag_239:\n        /* \"#utility.yul\":6907:7046   */\n      swap1\n      pop\n        /* \"#utility.yul\":6634:7053   */\n      swap2\n      swap1\n      pop\n      jump\t// out\n        /* \"#utility.yul\":7059:7250   */\n    tag_62:\n        /* \"#utility.yul\":7099:7102   */\n      0x00\n        /* \"#utility.yul\":7118:7138   */\n      tag_241\n        /* \"#utility.yul\":7136:7137   */\n      dup3\n        /* \"#utility.yul\":7118:7138   */\n      tag_151\n      jump\t// in\n    tag_241:\n        /* \"#utility.yul\":7113:7138   */\n      swap2\n      pop\n        /* \"#utility.yul\":7152:7172   */\n      tag_242\n        /* \"#utility.yul\":7170:7171   */\n      dup4\n        /* \"#utility.yul\":7152:7172   */\n      tag_151\n      jump\t// in\n    tag_242:\n        /* \"#utility.yul\":7147:7172   */\n      swap3\n      pop\n        /* \"#utility.yul\":7195:7196   */\n      dup3\n        /* \"#utility.yul\":7192:7193   */\n      dup3\n        /* \"#utility.yul\":7188:7197   */\n      add\n        /* \"#utility.yul\":7181:7197   */\n      swap1\n      pop\n        /* \"#utility.yul\":7216:7219   */\n      dup1\n        /* \"#utility.yul\":7213:7214   */\n      dup3\n        /* \"#utility.yul\":7210:7220   */\n      gt\n        /* \"#utility.yul\":7207:7243   */\n      iszero\n      tag_243\n      jumpi\n        /* \"#utility.yul\":7223:7241   */\n      tag_244\n      tag_155\n      jump\t// in\n    tag_244:\n        /* \"#utility.yul\":7207:7243   */\n    tag_243:\n        /* \"#utility.yul\":7059:7250   */\n      swap3\n      swap2\n      pop\n      pop\n      jump\t// out\n        /* \"#utility.yul\":7256:7450   */\n    tag_64:\n        /* \"#utility.yul\":7296:7300   */\n      0x00\n        /* \"#utility.yul\":7316:7336   */\n      tag_246\n        /* \"#utility.yul\":7334:7335   */\n      dup3\n        /* \"#utility.yul\":7316:7336   */\n      tag_151\n      jump\t// in\n    tag_246:\n        /* \"#utility.yul\":7311:7336   */\n      swap2\n      pop\n        /* \"#utility.yul\":7350:7370   */\n      tag_247\n        /* \"#utility.yul\":7368:7369   */\n      dup4\n        /* \"#utility.yul\":7350:7370   */\n      tag_151\n      jump\t// in\n    tag_247:\n        /* \"#utility.yul\":7345:7370   */\n      swap3\n      pop\n        /* \"#utility.yul\":7394:7395   */\n      dup3\n        /* \"#utility.yul\":7391:7392   */\n      dup3\n        /* \"#utility.yul\":7387:7396   */\n      sub\n        /* \"#utility.yul\":7379:7396   */\n      swap1\n      pop\n        /* \"#utility.yul\":7418:7419   */\n      dup2\n        /* \"#utility.yul\":7412:7416   */\n      dup2\n        /* \"#utility.yul\":7409:7420   */\n      gt\n        /* \"#utility.yul\":7406:7443   */\n      iszero\n      tag_248\n      jumpi\n        /* \"#utility.yul\":7423:7441   */\n      tag_249\n      tag_155\n      jump\t// in\n    tag_249:\n        /* \"#utility.yul\":7406:7443   */\n    tag_248:\n        /* \"#utility.yul\":7256:7450   */\n      swap3\n      swap2\n      pop\n      pop\n      jump\t// out\n        /* \"#utility.yul\":7456:7574   */\n    tag_162:\n        /* \"#utility.yul\":7543:7567   */\n      tag_251\n        /* \"#utility.yul\":7561:7566   */\n      dup2\n        /* \"#utility.yul\":7543:7567   */\n      tag_148\n      jump\t// in\n    tag_251:\n        /* \"#utility.yul\":7538:7541   */\n      dup3\n        /* \"#utility.yul\":7531:7568   */\n      mstore\n        /* \"#utility.yul\":7456:7574   */\n      pop\n      pop\n      jump\t// out\n        /* \"#utility.yul\":7580:8022   */\n    tag_70:\n        /* \"#utility.yul\":7729:7733   */\n      0x00\n        /* \"#utility.yul\":7767:7769   */\n      0x60\n        /* \"#utility.yul\":7756:7765   */\n      dup3\n        /* \"#utility.yul\":7752:7770   */\n      add\n        /* \"#utility.yul\":7744:7770   */\n      swap1\n      pop\n        /* \"#utility.yul\":7780:7851   */\n      tag_253\n        /* \"#utility.yul\":7848:7849   */\n      0x00\n        /* \"#utility.yul\":7837:7846   */\n      dup4\n        /* \"#utility.yul\":7833:7850   */\n      add\n        /* \"#utility.yul\":7824:7830   */\n      dup7\n        /* \"#utility.yul\":7780:7851   */\n      tag_162\n      jump\t// in\n    tag_253:\n        /* \"#utility.yul\":7861:7933   */\n      tag_254\n        /* \"#utility.yul\":7929:7931   */\n      0x20\n        /* \"#utility.yul\":7918:7927   */\n      dup4\n        /* \"#utility.yul\":7914:7932   */\n      add\n        /* \"#utility.yul\":7905:7911   */\n      dup6\n        /* \"#utility.yul\":7861:7933   */\n      tag_162\n      jump\t// in\n    tag_254:\n        /* \"#utility.yul\":7943:8015   */\n      tag_255\n        /* \"#utility.yul\":8011:8013   */\n      0x40\n        /* \"#utility.yul\":8000:8009   */\n      dup4\n        /* \"#utility.yul\":7996:8014   */\n      add\n        /* \"#utility.yul\":7987:7993   */\n      dup5\n        /* \"#utility.yul\":7943:8015   */\n      tag_154\n      jump\t// in\n    tag_255:\n        /* \"#utility.yul\":7580:8022   */\n      swap5\n      swap4\n      pop\n      pop\n      pop\n      pop\n      jump\t// out\n        /* \"#utility.yul\":8028:8118   */\n    tag_163:\n        /* \"#utility.yul\":8062:8069   */\n      0x00\n        /* \"#utility.yul\":8105:8110   */\n      dup2\n        /* \"#utility.yul\":8098:8111   */\n      iszero\n        /* \"#utility.yul\":8091:8112   */\n      iszero\n        /* \"#utility.yul\":8080:8112   */\n      swap1\n      pop\n        /* \"#utility.yul\":8028:8118   */\n      swap2\n      swap1\n      pop\n      jump\t// out\n        /* \"#utility.yul\":8124:8240   */\n    tag_164:\n        /* \"#utility.yul\":8194:8215   */\n      tag_258\n        /* \"#utility.yul\":8209:8214   */\n      dup2\n        /* \"#utility.yul\":8194:8215   */\n      tag_163\n      jump\t// in\n    tag_258:\n        /* \"#utility.yul\":8187:8192   */\n      dup2\n        /* \"#utility.yul\":8184:8216   */\n      eq\n        /* \"#utility.yul\":8174:8234   */\n      tag_259\n      jumpi\n        /* \"#utility.yul\":8230:8231   */\n      0x00\n        /* \"#utility.yul\":8227:8228   */\n      0x00\n        /* \"#utility.yul\":8220:8232   */\n      revert\n        /* \"#utility.yul\":8174:8234   */\n    tag_259:\n        /* \"#utility.yul\":8124:8240   */\n      pop\n      jump\t// out\n        /* \"#utility.yul\":8246:8383   */\n    tag_165:\n        /* \"#utility.yul\":8300:8305   */\n      0x00\n        /* \"#utility.yul\":8331:8337   */\n      dup2\n        /* \"#utility.yul\":8325:8338   */\n      mload\n        /* \"#utility.yul\":8316:8338   */\n      swap1\n      pop\n        /* \"#utility.yul\":8347:8377   */\n      tag_261\n        /* \"#utility.yul\":8371:8376   */\n      dup2\n        /* \"#utility.yul\":8347:8377   */\n      tag_164\n      jump\t// in\n    tag_261:\n        /* \"#utility.yul\":8246:8383   */\n      swap3\n      swap2\n      pop\n      pop\n      jump\t// out\n        /* \"#utility.yul\":8389:8734   */\n    tag_74:\n        /* \"#utility.yul\":8456:8462   */\n      0x00\n        /* \"#utility.yul\":8505:8507   */\n      0x20\n        /* \"#utility.yul\":8493:8502   */\n      dup3\n        /* \"#utility.yul\":8484:8491   */\n      dup5\n        /* \"#utility.yul\":8480:8503   */\n      sub\n        /* \"#utility.yul\":8476:8508   */\n      slt\n        /* \"#utility.yul\":8473:8592   */\n      iszero\n      tag_263\n      jumpi\n        /* \"#utility.yul\":8511:8590   */\n      tag_264\n      tag_145\n      jump\t// in\n    tag_264:\n        /* \"#utility.yul\":8473:8592   */\n    tag_263:\n        /* \"#utility.yul\":8631:8632   */\n      0x00\n        /* \"#utility.yul\":8656:8717   */\n      tag_265\n        /* \"#utility.yul\":8709:8716   */\n      dup5\n        /* \"#utility.yul\":8700:8706   */\n      dup3\n        /* \"#utility.yul\":8689:8698   */\n      dup6\n        /* \"#utility.yul\":8685:8707   */\n      add\n        /* \"#utility.yul\":8656:8717   */\n      tag_165\n      jump\t// in\n    tag_265:\n        /* \"#utility.yul\":8646:8717   */\n      swap2\n      pop\n        /* \"#utility.yul\":8602:8727   */\n      pop\n        /* \"#utility.yul\":8389:8734   */\n      swap3\n      swap2\n      pop\n      pop\n      jump\t// out\n        /* \"#utility.yul\":8740:8905   */\n    tag_166:\n        /* \"#utility.yul\":8880:8897   */\n      0x7472616e73666572206661696c65640000000000000000000000000000000000\n        /* \"#utility.yul\":8876:8877   */\n      0x00\n        /* \"#utility.yul\":8868:8874   */\n      dup3\n        /* \"#utility.yul\":8864:8878   */\n      add\n        /* \"#utility.yul\":8857:8898   */\n      mstore\n        /* \"#utility.yul\":8740:8905   */\n      pop\n      jump\t// out\n        /* \"#utility.yul\":8911:9277   */\n    tag_167:\n        /* \"#utility.yul\":9053:9056   */\n      0x00\n        /* \"#utility.yul\":9074:9141   */\n      tag_268\n        /* \"#utility.yul\":9138:9140   */\n      0x0f\n        /* \"#utility.yul\":9133:9136   */\n      dup4\n        /* \"#utility.yul\":9074:9141   */\n      tag_157\n      jump\t// in\n    tag_268:\n        /* \"#utility.yul\":9067:9141   */\n      swap2\n      pop\n        /* \"#utility.yul\":9150:9243   */\n      tag_269\n        /* \"#utility.yul\":9239:9242   */\n      dup3\n        /* \"#utility.yul\":9150:9243   */\n      tag_166\n      jump\t// in\n    tag_269:\n        /* \"#utility.yul\":9268:9270   */\n      0x20\n        /* \"#utility.yul\":9263:9266   */\n      dup3\n        /* \"#utility.yul\":9259:9271   */\n      add\n        /* \"#utility.yul\":9252:9271   */\n      swap1\n      pop\n        /* \"#utility.yul\":8911:9277   */\n      swap2\n      swap1\n      pop\n      jump\t// out\n        /* \"#utility.yul\":9283:9702   */\n    tag_77:\n        /* \"#utility.yul\":9449:9453   */\n      0x00\n        /* \"#utility.yul\":9487:9489   */\n      0x20\n        /* \"#utility.yul\":9476:9485   */\n      dup3\n        /* \"#utility.yul\":9472:9490   */\n      add\n        /* \"#utility.yul\":9464:9490   */\n      swap1\n      pop\n        /* \"#utility.yul\":9536:9545   */\n      dup2\n        /* \"#utility.yul\":9530:9534   */\n      dup2\n        /* \"#utility.yul\":9526:9546   */\n      sub\n        /* \"#utility.yul\":9522:9523   */\n      0x00\n        /* \"#utility.yul\":9511:9520   */\n      dup4\n        /* \"#utility.yul\":9507:9524   */\n      add\n        /* \"#utility.yul\":9500:9547   */\n      mstore\n        /* \"#utility.yul\":9564:9695   */\n      tag_271\n        /* \"#utility.yul\":9690:9694   */\n      dup2\n        /* \"#utility.yul\":9564:9695   */\n      tag_167\n      jump\t// in\n    tag_271:\n        /* \"#utility.yul\":9556:9695   */\n      swap1\n      pop\n        /* \"#utility.yul\":9283:9702   */\n      swap2\n      swap1\n      pop\n      jump\t// out\n        /* \"#utility.yul\":9708:10040   */\n    tag_98:\n        /* \"#utility.yul\":9829:9833   */\n      0x00\n        /* \"#utility.yul\":9867:9869   */\n      0x40\n        /* \"#utility.yul\":9856:9865   */\n      dup3\n        /* \"#utility.yul\":9852:9870   */\n      add\n        /* \"#utility.yul\":9844:9870   */\n      swap1\n      pop\n        /* \"#utility.yul\":9880:9951   */\n      tag_273\n        /* \"#utility.yul\":9948:9949   */\n      0x00\n        /* \"#utility.yul\":9937:9946   */\n      dup4\n        /* \"#utility.yul\":9933:9950   */\n      add\n        /* \"#utility.yul\":9924:9930   */\n      dup6\n        /* \"#utility.yul\":9880:9951   */\n      tag_162\n      jump\t// in\n    tag_273:\n        /* \"#utility.yul\":9961:10033   */\n      tag_274\n        /* \"#utility.yul\":10029:10031   */\n      0x20\n        /* \"#utility.yul\":10018:10027   */\n      dup4\n        /* \"#utility.yul\":10014:10032   */\n      add\n        /* \"#utility.yul\":10005:10011   */\n      dup5\n        /* \"#utility.yul\":9961:10033   */\n      tag_154\n      jump\t// in\n    tag_274:\n        /* \"#utility.yul\":9708:10040   */\n      swap4\n      swap3\n      pop\n      pop\n      pop\n      jump\t// out\n\n    auxdata: 0xa26469706673582212203366be5b65e3ecc91ac4b8655f3a198907e8662d2443915dd86ac6ba4db8ae6764736f6c634300081e0033\n}\n",
				"bytecode": {
					"linkReferences": {},
					"object": "6080604052348015600e575f5ffd5b506114048061001c5f395ff3fe608060405234801561000f575f5ffd5b5060043610610086575f3560e01c80638e8f294b116100595780638e8f294b1461010e578063ad74b77514610143578063f3fef3a314610174578063f7fd9f321461019057610086565b806322867d781461008a57806347e7ef24146100a65780634b8a3529146100c25780635bc6bdc9146100de575b5f5ffd5b6100a4600480360381019061009f9190610f35565b6101c0565b005b6100c060048036038101906100bb9190610f35565b6104b8565b005b6100dc60048036038101906100d79190610f35565b61069a565b005b6100f860048036038101906100f39190610f73565b610896565b6040516101059190610fc0565b60405180910390f35b61012860048036038101906101239190610fd9565b610984565b60405161013a96959493929190611004565b60405180910390f35b61015d60048036038101906101589190610f73565b6109bb565b60405161016b929190611063565b60405180910390f35b61018e60048036038101906101899190610f35565b6109e6565b005b6101aa60048036038101906101a59190610f73565b610be0565b6040516101b79190610fc0565b60405180910390f35b6101c982610cd0565b5f5f5f8473ffffffffffffffffffffffffffffffffffffffff1673ffffffffffffffffffffffffffffffffffffffff1681526020019081526020015f2090505f60015f3373ffffffffffffffffffffffffffffffffffffffff1673ffffffffffffffffffffffffffffffffffffffff1681526020019081526020015f205f8573ffffffffffffffffffffffffffffffffffffffff1673ffffffffffffffffffffffffffffffffffffffff1681526020019081526020015f2090505f6b033b2e3c9fd0803ce8000000836001015483600101546102a591906110b7565b6102af9190611125565b90507fffffffffffffffffffffffffffffffffffffffffffffffffffffffffffffffff84036102dc578093505b5f841161031e576040517f08c379a0000000000000000000000000000000000000000000000000000000008152600401610315906111af565b60405180910390fd5b80841115610361576040517f08c379a000000000000000000000000000000000000000000000000000000000815260040161035890611217565b60405180910390fd5b5f8360010154600185600101546b033b2e3c9fd0803ce80000008861038691906110b7565b6103909190611235565b61039a9190611268565b6103a49190611125565b905080836001015f8282546103b99190611268565b9250508190555080846003015f8282546103d39190611268565b9250508190555084846004015f8282546103ed9190611268565b925050819055508573ffffffffffffffffffffffffffffffffffffffff166323b872dd3330886040518463ffffffff1660e01b8152600401610431939291906112aa565b6020604051808303815f875af115801561044d573d5f5f3e3d5ffd5b505050506040513d601f19601f820116820180604052508101906104719190611314565b6104b0576040517f08c379a00000000000000000000000000000000000000000000000000000000081526004016104a790611389565b60405180910390fd5b505050505050565b6104c182610cd0565b5f5f5f8473ffffffffffffffffffffffffffffffffffffffff1673ffffffffffffffffffffffffffffffffffffffff1681526020019081526020015f2090505f60015f3373ffffffffffffffffffffffffffffffffffffffff1673ffffffffffffffffffffffffffffffffffffffff1681526020019081526020015f205f8573ffffffffffffffffffffffffffffffffffffffff1673ffffffffffffffffffffffffffffffffffffffff1681526020019081526020015f2090505f825f01546b033b2e3c9fd0803ce80000008561059891906110b7565b6105a29190611125565b905080825f015f8282546105b69190611235565b9250508190555080836002015f8282546105d09190611235565b925050819055508473ffffffffffffffffffffffffffffffffffffffff166323b872dd3330876040518463ffffffff1660e01b8152600401610614939291906112aa565b6020604051808303815f875af1158015610630573d5f5f3e3d5ffd5b505050506040513d601f19601f820116820180604052508101906106549190611314565b610693576040517f08c379a000000000000000000000000000000000000000000000000000000000815260040161068a90611389565b60405180910390fd5b5050505050565b6106a382610cd0565b5f5f5f8473ffffffffffffffffffffffffffffffffffffffff1673ffffffffffffffffffffffffffffffffffffffff1681526020019081526020015f2090505f60015f3373ffffffffffffffffffffffffffffffffffffffff1673ffffffffffffffffffffffffffffffffffffffff1681526020019081526020015f205f8573ffffffffffffffffffffffffffffffffffffffff1673ffffffffffffffffffffffffffffffffffffffff1681526020019081526020015f2090505f82600101546b033b2e3c9fd0803ce80000008561077b91906110b7565b6107859190611125565b905080826001015f82825461079a9190611235565b9250508190555080836003015f8282546107b49190611235565b9250508190555083836004015f8282546107ce9190611235565b925050819055508473ffffffffffffffffffffffffffffffffffffffff1663a9059cbb33866040518363ffffffff1660e01b81526004016108109291906113a7565b6020604051808303815f875af115801561082c573d5f5f3e3d5ffd5b505050506040513d601f19601f820116820180604052508101906108509190611314565b61088f576040517f08c379a000000000000000000000000000000000000000000000000000000000815260040161088690611389565b60405180910390fd5b5050505050565b5f5f5f5f8473ffffffffffffffffffffffffffffffffffffffff1673ffffffffffffffffffffffffffffffffffffffff1681526020019081526020015f2090505f60015f8673ffffffffffffffffffffffffffffffffffffffff1673ffffffffffffffffffffffffffffffffffffffff1681526020019081526020015f205f8573ffffffffffffffffffffffffffffffffffffffff1673ffffffffffffffffffffffffffffffffffffffff1681526020019081526020015f2090506b033b2e3c9fd0803ce8000000825f0154825f015461097091906110b7565b61097a9190611125565b9250505092915050565b5f602052805f5260405f205f91509050805f0154908060010154908060020154908060030154908060040154908060050154905086565b6001602052815f5260405f20602052805f5260405f205f9150915050805f0154908060010154905082565b6109ef82610cd0565b5f5f5f8473ffffffffffffffffffffffffffffffffffffffff1673ffffffffffffffffffffffffffffffffffffffff1681526020019081526020015f2090505f60015f3373ffffffffffffffffffffffffffffffffffffffff1673ffffffffffffffffffffffffffffffffffffffff1681526020019081526020015f205f8573ffffffffffffffffffffffffffffffffffffffff1673ffffffffffffffffffffffffffffffffffffffff1681526020019081526020015f2090505f825f01546001845f01546b033b2e3c9fd0803ce800000087610acc91906110b7565b610ad69190611235565b610ae09190611268565b610aea9190611125565b905080825f015f828254610afe9190611268565b9250508190555080836002015f828254610b189190611268565b925050819055508473ffffffffffffffffffffffffffffffffffffffff1663a9059cbb33866040518363ffffffff1660e01b8152600401610b5a9291906113a7565b6020604051808303815f875af1158015610b76573d5f5f3e3d5ffd5b505050506040513d601f19601f82011682018060405250810190610b9a9190611314565b610bd9576040517f08c379a0000000000000000000000000000000000000000000000000000000008152600401610bd090611389565b60405180910390fd5b5050505050565b5f5f5f5f8473ffffffffffffffffffffffffffffffffffffffff1673ffffffffffffffffffffffffffffffffffffffff1681526020019081526020015f2090505f60015f8673ffffffffffffffffffffffffffffffffffffffff1673ffffffffffffffffffffffffffffffffffffffff1681526020019081526020015f205f8573ffffffffffffffffffffffffffffffffffffffff1673ffffffffffffffffffffffffffffffffffffffff1681526020019081526020015f2090506b033b2e3c9fd0803ce800000082600101548260010154610cbc91906110b7565b610cc69190611125565b9250505092915050565b5f5f5f8373ffffffffffffffffffffffffffffffffffffffff1673ffffffffffffffffffffffffffffffffffffffff1681526020019081526020015f2090505f816005015403610d4d576b033b2e3c9fd0803ce8000000815f01819055506b033b2e3c9fd0803ce800000081600101819055504281600501819055505b5f816005015442610d5e9190611268565b90505f8103610d6e575050610e7e565b5f610d7884610e81565b90505f8282610d8791906110b7565b6b033b2e3c9fd0803ce8000000610d9e9190611235565b90505f846001015490506b033b2e3c9fd0803ce80000008282610dc191906110b7565b610dcb9190611125565b85600101819055505f6b033b2e3c9fd0803ce80000008084610ded9190611268565b8760040154610dfc91906110b7565b610e069190611125565b905080866004015f828254610e1b9190611235565b925050819055505f86600201541115610e6e5785600201546b033b2e3c9fd0803ce800000082610e4b91906110b7565b610e559190611125565b865f015f828254610e669190611235565b925050819055505b4286600501819055505050505050505b50565b5f6301e133806a0422ca8b0a00a425000000610e9d9190611125565b9050919050565b5f5ffd5b5f73ffffffffffffffffffffffffffffffffffffffff82169050919050565b5f610ed182610ea8565b9050919050565b610ee181610ec7565b8114610eeb575f5ffd5b50565b5f81359050610efc81610ed8565b92915050565b5f819050919050565b610f1481610f02565b8114610f1e575f5ffd5b50565b5f81359050610f2f81610f0b565b92915050565b5f5f60408385031215610f4b57610f4a610ea4565b5b5f610f5885828601610eee565b9250506020610f6985828601610f21565b9150509250929050565b5f5f60408385031215610f8957610f88610ea4565b5b5f610f9685828601610eee565b9250506020610fa785828601610eee565b9150509250929050565b610fba81610f02565b82525050565b5f602082019050610fd35f830184610fb1565b92915050565b5f60208284031215610fee57610fed610ea4565b5b5f610ffb84828501610eee565b91505092915050565b5f60c0820190506110175f830189610fb1565b6110246020830188610fb1565b6110316040830187610fb1565b61103e6060830186610fb1565b61104b6080830185610fb1565b61105860a0830184610fb1565b979650505050505050565b5f6040820190506110765f830185610fb1565b6110836020830184610fb1565b9392505050565b7f4e487b71000000000000000000000000000000000000000000000000000000005f52601160045260245ffd5b5f6110c182610f02565b91506110cc83610f02565b92508282026110da81610f02565b915082820484148315176110f1576110f061108a565b5b5092915050565b7f4e487b71000000000000000000000000000000000000000000000000000000005f52601260045260245ffd5b5f61112f82610f02565b915061113a83610f02565b92508261114a576111496110f8565b5b828204905092915050565b5f82825260208201905092915050565b7f6e6f7468696e6720746f207265706179000000000000000000000000000000005f82015250565b5f611199601083611155565b91506111a482611165565b602082019050919050565b5f6020820190508181035f8301526111c68161118d565b9050919050565b7f7265706179206d6f7265207468616e206f7765640000000000000000000000005f82015250565b5f611201601483611155565b915061120c826111cd565b602082019050919050565b5f6020820190508181035f83015261122e816111f5565b9050919050565b5f61123f82610f02565b915061124a83610f02565b92508282019050808211156112625761126161108a565b5b92915050565b5f61127282610f02565b915061127d83610f02565b92508282039050818111156112955761129461108a565b5b92915050565b6112a481610ec7565b82525050565b5f6060820190506112bd5f83018661129b565b6112ca602083018561129b565b6112d76040830184610fb1565b949350505050565b5f8115159050919050565b6112f3816112df565b81146112fd575f5ffd5b50565b5f8151905061130e816112ea565b92915050565b5f6020828403121561132957611328610ea4565b5b5f61133684828501611300565b91505092915050565b7f7472616e73666572206661696c656400000000000000000000000000000000005f82015250565b5f611373600f83611155565b915061137e8261133f565b602082019050919050565b5f6020820190508181035f8301526113a081611367565b9050919050565b5f6040820190506113ba5f83018561129b565b6113c76020830184610fb1565b939250505056fea26469706673582212203366be5b65e3ecc91ac4b8655f3a198907e8662d2443915dd86ac6ba4db8ae6764736f6c634300081e0033",
					"opcodes": "PUSH1 0x80 PUSH1 0x40 MSTORE CALLVALUE DUP1 ISZERO PUSH1 0xE JUMPI PUSH0 PUSH0 REVERT JUMPDEST POP PUSH2 0x1404 DUP1 PUSH2 0x1C PUSH0 CODECOPY PUSH0 RETURN INVALID PUSH1 0x80 PUSH1 0x40 MSTORE CALLVALUE DUP1 ISZERO PUSH2 0xF JUMPI PUSH0 PUSH0 REVERT JUMPDEST POP PUSH1 0x4 CALLDATASIZE LT PUSH2 0x86 JUMPI PUSH0 CALLDATALOAD PUSH1 0xE0 SHR DUP1 PUSH4 0x8E8F294B GT PUSH2 0x59 JUMPI DUP1 PUSH4 0x8E8F294B EQ PUSH2 0x10E JUMPI DUP1 PUSH4 0xAD74B775 EQ PUSH2 0x143 JUMPI DUP1 PUSH4 0xF3FEF3A3 EQ PUSH2 0x174 JUMPI DUP1 PUSH4 0xF7FD9F32 EQ PUSH2 0x190 JUMPI PUSH2 0x86 JUMP JUMPDEST DUP1 PUSH4 0x22867D78 EQ PUSH2 0x8A JUMPI DUP1 PUSH4 0x47E7EF24 EQ PUSH2 0xA6 JUMPI DUP1 PUSH4 0x4B8A3529 EQ PUSH2 0xC2 JUMPI DUP1 PUSH4 0x5BC6BDC9 EQ PUSH2 0xDE JUMPI JUMPDEST PUSH0 PUSH0 REVERT JUMPDEST PUSH2 0xA4 PUSH1 0x4 DUP1 CALLDATASIZE SUB DUP2 ADD SWAP1 PUSH2 0x9F SWAP2 SWAP1 PUSH2 0xF35 JUMP JUMPDEST PUSH2 0x1C0 JUMP JUMPDEST STOP JUMPDEST PUSH2 0xC0 PUSH1 0x4 DUP1 CALLDATASIZE SUB DUP2 ADD SWAP1 PUSH2 0xBB SWAP2 SWAP1 PUSH2 0xF35 JUMP JUMPDEST PUSH2 0x4B8 JUMP JUMPDEST STOP JUMPDEST PUSH2 0xDC PUSH1 0x4 DUP1 CALLDATASIZE SUB DUP2 ADD SWAP1 PUSH2 0xD7 SWAP2 SWAP1 PUSH2 0xF35 JUMP JUMPDEST PUSH2 0x69A JUMP JUMPDEST STOP JUMPDEST PUSH2 0xF8 PUSH1 0x4 DUP1 CALLDATASIZE SUB DUP2 ADD SWAP1 PUSH2 0xF3 SWAP2 SWAP1 PUSH2 0xF73 JUMP JUMPDEST PUSH2 0x896 JUMP JUMPDEST PUSH1 0x40 MLOAD PUSH2 0x105 SWAP2 SWAP1 PUSH2 0xFC0 JUMP JUMPDEST PUSH1 0x40 MLOAD DUP1 SWAP2 SUB SWAP1 RETURN JUMPDEST PUSH2 0x128 PUSH1 0x4 DUP1 CALLDATASIZE SUB DUP2 ADD SWAP1 PUSH2 0x123 SWAP2 SWAP1 PUSH2 0xFD9 JUMP JUMPDEST PUSH2 0x984 JUMP JUMPDEST PUSH1 0x40 MLOAD PUSH2 0x13A SWAP7 SWAP6 SWAP5 SWAP4 SWAP3 SWAP2 SWAP1 PUSH2 0x1004 JUMP JUMPDEST PUSH1 0x40 MLOAD DUP1 SWAP2 SUB SWAP1 RETURN JUMPDEST PUSH2 0x15D PUSH1 0x4 DUP1 CALLDATASIZE SUB DUP2 ADD SWAP1 PUSH2 0x158 SWAP2 SWAP1 PUSH2 0xF73 JUMP JUMPDEST PUSH2 0x9BB JUMP JUMPDEST PUSH1 0x40 MLOAD PUSH2 0x16B SWAP3 SWAP2 SWAP1 PUSH2 0x1063 JUMP JUMPDEST PUSH1 0x40 MLOAD DUP1 SWAP2 SUB SWAP1 RETURN JUMPDEST PUSH2 0x18E PUSH1 0x4 DUP1 CALLDATASIZE SUB DUP2 ADD SWAP1 PUSH2 0x189 SWAP2 SWAP1 PUSH2 0xF35 JUMP JUMPDEST PUSH2 0x9E6 JUMP JUMPDEST STOP JUMPDEST PUSH2 0x1AA PUSH1 0x4 DUP1 CALLDATASIZE SUB DUP2 ADD SWAP1 PUSH2 0x1A5 SWAP2 SWAP1 PUSH2 0xF73 JUMP JUMPDEST PUSH2 0xBE0 JUMP JUMPDEST PUSH1 0x40 MLOAD PUSH2 0x1B7 SWAP2 SWAP1 PUSH2 0xFC0 JUMP JUMPDEST PUSH1 0x40 MLOAD DUP1 SWAP2 SUB SWAP1 RETURN JUMPDEST PUSH2 0x1C9 DUP3 PUSH2 0xCD0 JUMP JUMPDEST PUSH0 PUSH0 PUSH0 DUP5 PUSH20 0xFFFFFFFFFFFFFFFFFFFFFFFFFFFFFFFFFFFFFFFF AND PUSH20 0xFFFFFFFFFFFFFFFFFFFFFFFFFFFFFFFFFFFFFFFF AND DUP2 MSTORE PUSH1 0x20 ADD SWAP1 DUP2 MSTORE PUSH1 0x20 ADD PUSH0 KECCAK256 SWAP1 POP PUSH0 PUSH1 0x1 PUSH0 CALLER PUSH20 0xFFFFFFFFFFFFFFFFFFFFFFFFFFFFFFFFFFFFFFFF AND PUSH20 0xFFFFFFFFFFFFFFFFFFFFFFFFFFFFFFFFFFFFFFFF AND DUP2 MSTORE PUSH1 0x20 ADD SWAP1 DUP2 MSTORE PUSH1 0x20 ADD PUSH0 KECCAK256 PUSH0 DUP6 PUSH20 0xFFFFFFFFFFFFFFFFFFFFFFFFFFFFFFFFFFFFFFFF AND PUSH20 0xFFFFFFFFFFFFFFFFFFFFFFFFFFFFFFFFFFFFFFFF AND DUP2 MSTORE PUSH1 0x20 ADD SWAP1 DUP2 MSTORE PUSH1 0x20 ADD PUSH0 KECCAK256 SWAP1 POP PUSH0 PUSH12 0x33B2E3C9FD0803CE8000000 DUP4 PUSH1 0x1 ADD SLOAD DUP4 PUSH1 0x1 ADD SLOAD PUSH2 0x2A5 SWAP2 SWAP1 PUSH2 0x10B7 JUMP JUMPDEST PUSH2 0x2AF SWAP2 SWAP1 PUSH2 0x1125 JUMP JUMPDEST SWAP1 POP PUSH32 0xFFFFFFFFFFFFFFFFFFFFFFFFFFFFFFFFFFFFFFFFFFFFFFFFFFFFFFFFFFFFFFFF DUP5 SUB PUSH2 0x2DC JUMPI DUP1 SWAP4 POP JUMPDEST PUSH0 DUP5 GT PUSH2 0x31E JUMPI PUSH1 0x40 MLOAD PUSH32 0x8C379A000000000000000000000000000000000000000000000000000000000 DUP2 MSTORE PUSH1 0x4 ADD PUSH2 0x315 SWAP1 PUSH2 0x11AF JUMP JUMPDEST PUSH1 0x40 MLOAD DUP1 SWAP2 SUB SWAP1 REVERT JUMPDEST DUP1 DUP5 GT ISZERO PUSH2 0x361 JUMPI PUSH1 0x40 MLOAD PUSH32 0x8C379A000000000000000000000000000000000000000000000000000000000 DUP2 MSTORE PUSH1 0x4 ADD PUSH2 0x358 SWAP1 PUSH2 0x1217 JUMP JUMPDEST PUSH1 0x40 MLOAD DUP1 SWAP2 SUB SWAP1 REVERT JUMPDEST PUSH0 DUP4 PUSH1 0x1 ADD SLOAD PUSH1 0x1 DUP6 PUSH1 0x1 ADD SLOAD PUSH12 0x33B2E3C9FD0803CE8000000 DUP9 PUSH2 0x386 SWAP2 SWAP1 PUSH2 0x10B7 JUMP JUMPDEST PUSH2 0x390 SWAP2 SWAP1 PUSH2 0x1235 JUMP JUMPDEST PUSH2 0x39A SWAP2 SWAP1 PUSH2 0x1268 JUMP JUMPDEST PUSH2 0x3A4 SWAP2 SWAP1 PUSH2 0x1125 JUMP JUMPDEST SWAP1 POP DUP1 DUP4 PUSH1 0x1 ADD PUSH0 DUP3 DUP3 SLOAD PUSH2 0x3B9 SWAP2 SWAP1 PUSH2 0x1268 JUMP JUMPDEST SWAP3 POP POP DUP2 SWAP1 SSTORE POP DUP1 DUP5 PUSH1 0x3 ADD PUSH0 DUP3 DUP3 SLOAD PUSH2 0x3D3 SWAP2 SWAP1 PUSH2 0x1268 JUMP JUMPDEST SWAP3 POP POP DUP2 SWAP1 SSTORE POP DUP5 DUP5 PUSH1 0x4 ADD PUSH0 DUP3 DUP3 SLOAD PUSH2 0x3ED SWAP2 SWAP1 PUSH2 0x1268 JUMP JUMPDEST SWAP3 POP POP DUP2 SWAP1 SSTORE POP DUP6 PUSH20 0xFFFFFFFFFFFFFFFFFFFFFFFFFFFFFFFFFFFFFFFF AND PUSH4 0x23B872DD CALLER ADDRESS DUP9 PUSH1 0x40 MLOAD DUP5 PUSH4 0xFFFFFFFF AND PUSH1 0xE0 SHL DUP2 MSTORE PUSH1 0x4 ADD PUSH2 0x431 SWAP4 SWAP3 SWAP2 SWAP1 PUSH2 0x12AA JUMP JUMPDEST PUSH1 0x20 PUSH1 0x40 MLOAD DUP1 DUP4 SUB DUP2 PUSH0 DUP8 GAS CALL ISZERO DUP1 ISZERO PUSH2 0x44D JUMPI RETURNDATASIZE PUSH0 PUSH0 RETURNDATACOPY RETURNDATASIZE PUSH0 REVERT JUMPDEST POP POP POP POP PUSH1 0x40 MLOAD RETURNDATASIZE PUSH1 0x1F NOT PUSH1 0x1F DUP3 ADD AND DUP3 ADD DUP1 PUSH1 0x40 MSTORE POP DUP2 ADD SWAP1 PUSH2 0x471 SWAP2 SWAP1 PUSH2 0x1314 JUMP JUMPDEST PUSH2 0x4B0 JUMPI PUSH1 0x40 MLOAD PUSH32 0x8C379A000000000000000000000000000000000000000000000000000000000 DUP2 MSTORE PUSH1 0x4 ADD PUSH2 0x4A7 SWAP1 PUSH2 0x1389 JUMP JUMPDEST PUSH1 0x40 MLOAD DUP1 SWAP2 SUB SWAP1 REVERT JUMPDEST POP POP POP POP POP POP JUMP JUMPDEST PUSH2 0x4C1 DUP3 PUSH2 0xCD0 JUMP JUMPDEST PUSH0 PUSH0 PUSH0 DUP5 PUSH20 0xFFFFFFFFFFFFFFFFFFFFFFFFFFFFFFFFFFFFFFFF AND PUSH20 0xFFFFFFFFFFFFFFFFFFFFFFFFFFFFFFFFFFFFFFFF AND DUP2 MSTORE PUSH1 0x20 ADD SWAP1 DUP2 MSTORE PUSH1 0x20 ADD PUSH0 KECCAK256 SWAP1 POP PUSH0 PUSH1 0x1 PUSH0 CALLER PUSH20 0xFFFFFFFFFFFFFFFFFFFFFFFFFFFFFFFFFFFFFFFF AND PUSH20 0xFFFFFFFFFFFFFFFFFFFFFFFFFFFFFFFFFFFFFFFF AND DUP2 MSTORE PUSH1 0x20 ADD SWAP1 DUP2 MSTORE PUSH1 0x20 ADD PUSH0 KECCAK256 PUSH0 DUP6 PUSH20 0xFFFFFFFFFFFFFFFFFFFFFFFFFFFFFFFFFFFFFFFF AND PUSH20 0xFFFFFFFFFFFFFFFFFFFFFFFFFFFFFFFFFFFFFFFF AND DUP2 MSTORE PUSH1 0x20 ADD SWAP1 DUP2 MSTORE PUSH1 0x20 ADD PUSH0 KECCAK256 SWAP1 POP PUSH0 DUP3 PUSH0 ADD SLOAD PUSH12 0x33B2E3C9FD0803CE8000000 DUP6 PUSH2 0x598 SWAP2 SWAP1 PUSH2 0x10B7 JUMP JUMPDEST PUSH2 0x5A2 SWAP2 SWAP1 PUSH2 0x1125 JUMP JUMPDEST SWAP1 POP DUP1 DUP3 PUSH0 ADD PUSH0 DUP3 DUP3 SLOAD PUSH2 0x5B6 SWAP2 SWAP1 PUSH2 0x1235 JUMP JUMPDEST SWAP3 POP POP DUP2 SWAP1 SSTORE POP DUP1 DUP4 PUSH1 0x2 ADD PUSH0 DUP3 DUP3 SLOAD PUSH2 0x5D0 SWAP2 SWAP1 PUSH2 0x1235 JUMP JUMPDEST SWAP3 POP POP DUP2 SWAP1 SSTORE POP DUP5 PUSH20 0xFFFFFFFFFFFFFFFFFFFFFFFFFFFFFFFFFFFFFFFF AND PUSH4 0x23B872DD CALLER ADDRESS DUP8 PUSH1 0x40 MLOAD DUP5 PUSH4 0xFFFFFFFF AND PUSH1 0xE0 SHL DUP2 MSTORE PUSH1 0x4 ADD PUSH2 0x614 SWAP4 SWAP3 SWAP2 SWAP1 PUSH2 0x12AA JUMP JUMPDEST PUSH1 0x20 PUSH1 0x40 MLOAD DUP1 DUP4 SUB DUP2 PUSH0 DUP8 GAS CALL ISZERO DUP1 ISZERO PUSH2 0x630 JUMPI RETURNDATASIZE PUSH0 PUSH0 RETURNDATACOPY RETURNDATASIZE PUSH0 REVERT JUMPDEST POP POP POP POP PUSH1 0x40 MLOAD RETURNDATASIZE PUSH1 0x1F NOT PUSH1 0x1F DUP3 ADD AND DUP3 ADD DUP1 PUSH1 0x40 MSTORE POP DUP2 ADD SWAP1 PUSH2 0x654 SWAP2 SWAP1 PUSH2 0x1314 JUMP JUMPDEST PUSH2 0x693 JUMPI PUSH1 0x40 MLOAD PUSH32 0x8C379A000000000000000000000000000000000000000000000000000000000 DUP2 MSTORE PUSH1 0x4 ADD PUSH2 0x68A SWAP1 PUSH2 0x1389 JUMP JUMPDEST PUSH1 0x40 MLOAD DUP1 SWAP2 SUB SWAP1 REVERT JUMPDEST POP POP POP POP POP JUMP JUMPDEST PUSH2 0x6A3 DUP3 PUSH2 0xCD0 JUMP JUMPDEST PUSH0 PUSH0 PUSH0 DUP5 PUSH20 0xFFFFFFFFFFFFFFFFFFFFFFFFFFFFFFFFFFFFFFFF AND PUSH20 0xFFFFFFFFFFFFFFFFFFFFFFFFFFFFFFFFFFFFFFFF AND DUP2 MSTORE PUSH1 0x20 ADD SWAP1 DUP2 MSTORE PUSH1 0x20 ADD PUSH0 KECCAK256 SWAP1 POP PUSH0 PUSH1 0x1 PUSH0 CALLER PUSH20 0xFFFFFFFFFFFFFFFFFFFFFFFFFFFFFFFFFFFFFFFF AND PUSH20 0xFFFFFFFFFFFFFFFFFFFFFFFFFFFFFFFFFFFFFFFF AND DUP2 MSTORE PUSH1 0x20 ADD SWAP1 DUP2 MSTORE PUSH1 0x20 ADD PUSH0 KECCAK256 PUSH0 DUP6 PUSH20 0xFFFFFFFFFFFFFFFFFFFFFFFFFFFFFFFFFFFFFFFF AND PUSH20 0xFFFFFFFFFFFFFFFFFFFFFFFFFFFFFFFFFFFFFFFF AND DUP2 MSTORE PUSH1 0x20 ADD SWAP1 DUP2 MSTORE PUSH1 0x20 ADD PUSH0 KECCAK256 SWAP1 POP PUSH0 DUP3 PUSH1 0x1 ADD SLOAD PUSH12 0x33B2E3C9FD0803CE8000000 DUP6 PUSH2 0x77B SWAP2 SWAP1 PUSH2 0x10B7 JUMP JUMPDEST PUSH2 0x785 SWAP2 SWAP1 PUSH2 0x1125 JUMP JUMPDEST SWAP1 POP DUP1 DUP3 PUSH1 0x1 ADD PUSH0 DUP3 DUP3 SLOAD PUSH2 0x79A SWAP2 SWAP1 PUSH2 0x1235 JUMP JUMPDEST SWAP3 POP POP DUP2 SWAP1 SSTORE POP DUP1 DUP4 PUSH1 0x3 ADD PUSH0 DUP3 DUP3 SLOAD PUSH2 0x7B4 SWAP2 SWAP1 PUSH2 0x1235 JUMP JUMPDEST SWAP3 POP POP DUP2 SWAP1 SSTORE POP DUP4 DUP4 PUSH1 0x4 ADD PUSH0 DUP3 DUP3 SLOAD PUSH2 0x7CE SWAP2 SWAP1 PUSH2 0x1235 JUMP JUMPDEST SWAP3 POP POP DUP2 SWAP1 SSTORE POP DUP5 PUSH20 0xFFFFFFFFFFFFFFFFFFFFFFFFFFFFFFFFFFFFFFFF AND PUSH4 0xA9059CBB CALLER DUP7 PUSH1 0x40 MLOAD DUP4 PUSH4 0xFFFFFFFF AND PUSH1 0xE0 SHL DUP2 MSTORE PUSH1 0x4 ADD PUSH2 0x810 SWAP3 SWAP2 SWAP1 PUSH2 0x13A7 JUMP JUMPDEST PUSH1 0x20 PUSH1 0x40 MLOAD DUP1 DUP4 SUB DUP2 PUSH0 DUP8 GAS CALL ISZERO DUP1 ISZERO PUSH2 0x82C JUMPI RETURNDATASIZE PUSH0 PUSH0 RETURNDATACOPY RETURNDATASIZE PUSH0 REVERT JUMPDEST POP POP POP POP PUSH1 0x40 MLOAD RETURNDATASIZE PUSH1 0x1F NOT PUSH1 0x1F DUP3 ADD AND DUP3 ADD DUP1 PUSH1 0x40 MSTORE POP DUP2 ADD SWAP1 PUSH2 0x850 SWAP2 SWAP1 PUSH2 0x1314 JUMP JUMPDEST PUSH2 0x88F JUMPI PUSH1 0x40 MLOAD PUSH32 0x8C379A000000000000000000000000000000000000000000000000000000000 DUP2 MSTORE PUSH1 0x4 ADD PUSH2 0x886 SWAP1 PUSH2 0x1389 JUMP JUMPDEST PUSH1 0x40 MLOAD DUP1 SWAP2 SUB SWAP1 REVERT JUMPDEST POP POP POP POP POP JUMP JUMPDEST PUSH0 PUSH0 PUSH0 PUSH0 DUP5 PUSH20 0xFFFFFFFFFFFFFFFFFFFFFFFFFFFFFFFFFFFFFFFF AND PUSH20 0xFFFFFFFFFFFFFFFFFFFFFFFFFFFFFFFFFFFFFFFF AND DUP2 MSTORE PUSH1 0x20 ADD SWAP1 DUP2 MSTORE PUSH1 0x20 ADD PUSH0 KECCAK256 SWAP1 POP PUSH0 PUSH1 0x1 PUSH0 DUP7 PUSH20 0xFFFFFFFFFFFFFFFFFFFFFFFFFFFFFFFFFFFFFFFF AND PUSH20 0xFFFFFFFFFFFFFFFFFFFFFFFFFFFFFFFFFFFFFFFF AND DUP2 MSTORE PUSH1 0x20 ADD SWAP1 DUP2 MSTORE PUSH1 0x20 ADD PUSH0 KECCAK256 PUSH0 DUP6 PUSH20 0xFFFFFFFFFFFFFFFFFFFFFFFFFFFFFFFFFFFFFFFF AND PUSH20 0xFFFFFFFFFFFFFFFFFFFFFFFFFFFFFFFFFFFFFFFF AND DUP2 MSTORE PUSH1 0x20 ADD SWAP1 DUP2 MSTORE PUSH1 0x20 ADD PUSH0 KECCAK256 SWAP1 POP PUSH12 0x33B2E3C9FD0803CE8000000 DUP3 PUSH0 ADD SLOAD DUP3 PUSH0 ADD SLOAD PUSH2 0x970 SWAP2 SWAP1 PUSH2 0x10B7 JUMP JUMPDEST PUSH2 0x97A SWAP2 SWAP1 PUSH2 0x1125 JUMP JUMPDEST SWAP3 POP POP POP SWAP3 SWAP2 POP POP JUMP JUMPDEST PUSH0 PUSH1 0x20 MSTORE DUP1 PUSH0 MSTORE PUSH1 0x40 PUSH0 KECCAK256 PUSH0 SWAP2 POP SWAP1 POP DUP1 PUSH0 ADD SLOAD SWAP1 DUP1 PUSH1 0x1 ADD SLOAD SWAP1 DUP1 PUSH1 0x2 ADD SLOAD SWAP1 DUP1 PUSH1 0x3 ADD SLOAD SWAP1 DUP1 PUSH1 0x4 ADD SLOAD SWAP1 DUP1 PUSH1 0x5 ADD SLOAD SWAP1 POP DUP7 JUMP JUMPDEST PUSH1 0x1 PUSH1 0x20 MSTORE DUP2 PUSH0 MSTORE PUSH1 0x40 PUSH0 KECCAK256 PUSH1 0x20 MSTORE DUP1 PUSH0 MSTORE PUSH1 0x40 PUSH0 KECCAK256 PUSH0 SWAP2 POP SWAP2 POP POP DUP1 PUSH0 ADD SLOAD SWAP1 DUP1 PUSH1 0x1 ADD SLOAD SWAP1 POP DUP3 JUMP JUMPDEST PUSH2 0x9EF DUP3 PUSH2 0xCD0 JUMP JUMPDEST PUSH0 PUSH0 PUSH0 DUP5 PUSH20 0xFFFFFFFFFFFFFFFFFFFFFFFFFFFFFFFFFFFFFFFF AND PUSH20 0xFFFFFFFFFFFFFFFFFFFFFFFFFFFFFFFFFFFFFFFF AND DUP2 MSTORE PUSH1 0x20 ADD SWAP1 DUP2 MSTORE PUSH1 0x20 ADD PUSH0 KECCAK256 SWAP1 POP PUSH0 PUSH1 0x1 PUSH0 CALLER PUSH20 0xFFFFFFFFFFFFFFFFFFFFFFFFFFFFFFFFFFFFFFFF AND PUSH20 0xFFFFFFFFFFFFFFFFFFFFFFFFFFFFFFFFFFFFFFFF AND DUP2 MSTORE PUSH1 0x20 ADD SWAP1 DUP2 MSTORE PUSH1 0x20 ADD PUSH0 KECCAK256 PUSH0 DUP6 PUSH20 0xFFFFFFFFFFFFFFFFFFFFFFFFFFFFFFFFFFFFFFFF AND PUSH20 0xFFFFFFFFFFFFFFFFFFFFFFFFFFFFFFFFFFFFFFFF AND DUP2 MSTORE PUSH1 0x20 ADD SWAP1 DUP2 MSTORE PUSH1 0x20 ADD PUSH0 KECCAK256 SWAP1 POP PUSH0 DUP3 PUSH0 ADD SLOAD PUSH1 0x1 DUP5 PUSH0 ADD SLOAD PUSH12 0x33B2E3C9FD0803CE8000000 DUP8 PUSH2 0xACC SWAP2 SWAP1 PUSH2 0x10B7 JUMP JUMPDEST PUSH2 0xAD6 SWAP2 SWAP1 PUSH2 0x1235 JUMP JUMPDEST PUSH2 0xAE0 SWAP2 SWAP1 PUSH2 0x1268 JUMP JUMPDEST PUSH2 0xAEA SWAP2 SWAP1 PUSH2 0x1125 JUMP JUMPDEST SWAP1 POP DUP1 DUP3 PUSH0 ADD PUSH0 DUP3 DUP3 SLOAD PUSH2 0xAFE SWAP2 SWAP1 PUSH2 0x1268 JUMP JUMPDEST SWAP3 POP POP DUP2 SWAP1 SSTORE POP DUP1 DUP4 PUSH1 0x2 ADD PUSH0 DUP3 DUP3 SLOAD PUSH2 0xB18 SWAP2 SWAP1 PUSH2 0x1268 JUMP JUMPDEST SWAP3 POP POP DUP2 SWAP1 SSTORE POP DUP5 PUSH20 0xFFFFFFFFFFFFFFFFFFFFFFFFFFFFFFFFFFFFFFFF AND PUSH4 0xA9059CBB CALLER DUP7 PUSH1 0x40 MLOAD DUP4 PUSH4 0xFFFFFFFF AND PUSH1 0xE0 SHL DUP2 MSTORE PUSH1 0x4 ADD PUSH2 0xB5A SWAP3 SWAP2 SWAP1 PUSH2 0x13A7 JUMP JUMPDEST PUSH1 0x20 PUSH1 0x40 MLOAD DUP1 DUP4 SUB DUP2 PUSH0 DUP8 GAS CALL ISZERO DUP1 ISZERO PUSH2 0xB76 JUMPI RETURNDATASIZE PUSH0 PUSH0 RETURNDATACOPY RETURNDATASIZE PUSH0 REVERT JUMPDEST POP POP POP POP PUSH1 0x40 MLOAD RETURNDATASIZE PUSH1 0x1F NOT PUSH1 0x1F DUP3 ADD AND DUP3 ADD DUP1 PUSH1 0x40 MSTORE POP DUP2 ADD SWAP1 PUSH2 0xB9A SWAP2 SWAP1 PUSH2 0x1314 JUMP JUMPDEST PUSH2 0xBD9 JUMPI PUSH1 0x40 MLOAD PUSH32 0x8C379A000000000000000000000000000000000000000000000000000000000 DUP2 MSTORE PUSH1 0x4 ADD PUSH2 0xBD0 SWAP1 PUSH2 0x1389 JUMP JUMPDEST PUSH1 0x40 MLOAD DUP1 SWAP2 SUB SWAP1 REVERT JUMPDEST POP POP POP POP POP JUMP JUMPDEST PUSH0 PUSH0 PUSH0 PUSH0 DUP5 PUSH20 0xFFFFFFFFFFFFFFFFFFFFFFFFFFFFFFFFFFFFFFFF AND PUSH20 0xFFFFFFFFFFFFFFFFFFFFFFFFFFFFFFFFFFFFFFFF AND DUP2 MSTORE PUSH1 0x20 ADD SWAP1 DUP2 MSTORE PUSH1 0x20 ADD PUSH0 KECCAK256 SWAP1 POP PUSH0 PUSH1 0x1 PUSH0 DUP7 PUSH20 0xFFFFFFFFFFFFFFFFFFFFFFFFFFFFFFFFFFFFFFFF AND PUSH20 0xFFFFFFFFFFFFFFFFFFFFFFFFFFFFFFFFFFFFFFFF AND DUP2 MSTORE PUSH1 0x20 ADD SWAP1 DUP2 MSTORE PUSH1 0x20 ADD PUSH0 KECCAK256 PUSH0 DUP6 PUSH20 0xFFFFFFFFFFFFFFFFFFFFFFFFFFFFFFFFFFFFFFFF AND PUSH20 0xFFFFFFFFFFFFFFFFFFFFFFFFFFFFFFFFFFFFFFFF AND DUP2 MSTORE PUSH1 0x20 ADD SWAP1 DUP2 MSTORE PUSH1 0x20 ADD PUSH0 KECCAK256 SWAP1 POP PUSH12 0x33B2E3C9FD0803CE8000000 DUP3 PUSH1 0x1 ADD SLOAD DUP3 PUSH1 0x1 ADD SLOAD PUSH2 0xCBC SWAP2 SWAP1 PUSH2 0x10B7 JUMP JUMPDEST PUSH2 0xCC6 SWAP2 SWAP1 PUSH2 0x1125 JUMP JUMPDEST SWAP3 POP POP POP SWAP3 SWAP2 POP POP JUMP JUMPDEST PUSH0 PUSH0 PUSH0 DUP4 PUSH20 0xFFFFFFFFFFFFFFFFFFFFFFFFFFFFFFFFFFFFFFFF AND PUSH20 0xFFFFFFFFFFFFFFFFFFFFFFFFFFFFFFFFFFFFFFFF AND DUP2 MSTORE PUSH1 0x20 ADD SWAP1 DUP2 MSTORE PUSH1 0x20 ADD PUSH0 KECCAK256 SWAP1 POP PUSH0 DUP2 PUSH1 0x5 ADD SLOAD SUB PUSH2 0xD4D JUMPI PUSH12 0x33B2E3C9FD0803CE8000000 DUP2 PUSH0 ADD DUP2 SWAP1 SSTORE POP PUSH12 0x33B2E3C9FD0803CE8000000 DUP2 PUSH1 0x1 ADD DUP2 SWAP1 SSTORE POP TIMESTAMP DUP2 PUSH1 0x5 ADD DUP2 SWAP1 SSTORE POP JUMPDEST PUSH0 DUP2 PUSH1 0x5 ADD SLOAD TIMESTAMP PUSH2 0xD5E SWAP2 SWAP1 PUSH2 0x1268 JUMP JUMPDEST SWAP1 POP PUSH0 DUP2 SUB PUSH2 0xD6E JUMPI POP POP PUSH2 0xE7E JUMP JUMPDEST PUSH0 PUSH2 0xD78 DUP5 PUSH2 0xE81 JUMP JUMPDEST SWAP1 POP PUSH0 DUP3 DUP3 PUSH2 0xD87 SWAP2 SWAP1 PUSH2 0x10B7 JUMP JUMPDEST PUSH12 0x33B2E3C9FD0803CE8000000 PUSH2 0xD9E SWAP2 SWAP1 PUSH2 0x1235 JUMP JUMPDEST SWAP1 POP PUSH0 DUP5 PUSH1 0x1 ADD SLOAD SWAP1 POP PUSH12 0x33B2E3C9FD0803CE8000000 DUP3 DUP3 PUSH2 0xDC1 SWAP2 SWAP1 PUSH2 0x10B7 JUMP JUMPDEST PUSH2 0xDCB SWAP2 SWAP1 PUSH2 0x1125 JUMP JUMPDEST DUP6 PUSH1 0x1 ADD DUP2 SWAP1 SSTORE POP PUSH0 PUSH12 0x33B2E3C9FD0803CE8000000 DUP1 DUP5 PUSH2 0xDED SWAP2 SWAP1 PUSH2 0x1268 JUMP JUMPDEST DUP8 PUSH1 0x4 ADD SLOAD PUSH2 0xDFC SWAP2 SWAP1 PUSH2 0x10B7 JUMP JUMPDEST PUSH2 0xE06 SWAP2 SWAP1 PUSH2 0x1125 JUMP JUMPDEST SWAP1 POP DUP1 DUP7 PUSH1 0x4 ADD PUSH0 DUP3 DUP3 SLOAD PUSH2 0xE1B SWAP2 SWAP1 PUSH2 0x1235 JUMP JUMPDEST SWAP3 POP POP DUP2 SWAP1 SSTORE POP PUSH0 DUP7 PUSH1 0x2 ADD SLOAD GT ISZERO PUSH2 0xE6E JUMPI DUP6 PUSH1 0x2 ADD SLOAD PUSH12 0x33B2E3C9FD0803CE8000000 DUP3 PUSH2 0xE4B SWAP2 SWAP1 PUSH2 0x10B7 JUMP JUMPDEST PUSH2 0xE55 SWAP2 SWAP1 PUSH2 0x1125 JUMP JUMPDEST DUP7 PUSH0 ADD PUSH0 DUP3 DUP3 SLOAD PUSH2 0xE66 SWAP2 SWAP1 PUSH2 0x1235 JUMP JUMPDEST SWAP3 POP POP DUP2 SWAP1 SSTORE POP JUMPDEST TIMESTAMP DUP7 PUSH1 0x5 ADD DUP2 SWAP1 SSTORE POP POP POP POP POP POP POP JUMPDEST POP JUMP JUMPDEST PUSH0 PUSH4 0x1E13380 PUSH11 0x422CA8B0A00A425000000 PUSH2 0xE9D SWAP2 SWAP1 PUSH2 0x1125 JUMP JUMPDEST SWAP1 POP SWAP2 SWAP1 POP JUMP JUMPDEST PUSH0 PUSH0 REVERT JUMPDEST PUSH0 PUSH20 0xFFFFFFFFFFFFFFFFFFFFFFFFFFFFFFFFFFFFFFFF DUP3 AND SWAP1 POP SWAP2 SWAP1 POP JUMP JUMPDEST PUSH0 PUSH2 0xED1 DUP3 PUSH2 0xEA8 JUMP JUMPDEST SWAP1 POP SWAP2 SWAP1 POP JUMP JUMPDEST PUSH2 0xEE1 DUP2 PUSH2 0xEC7 JUMP JUMPDEST DUP2 EQ PUSH2 0xEEB JUMPI PUSH0 PUSH0 REVERT JUMPDEST POP JUMP JUMPDEST PUSH0 DUP2 CALLDATALOAD SWAP1 POP PUSH2 0xEFC DUP2 PUSH2 0xED8 JUMP JUMPDEST SWAP3 SWAP2 POP POP JUMP JUMPDEST PUSH0 DUP2 SWAP1 POP SWAP2 SWAP1 POP JUMP JUMPDEST PUSH2 0xF14 DUP2 PUSH2 0xF02 JUMP JUMPDEST DUP2 EQ PUSH2 0xF1E JUMPI PUSH0 PUSH0 REVERT JUMPDEST POP JUMP JUMPDEST PUSH0 DUP2 CALLDATALOAD SWAP1 POP PUSH2 0xF2F DUP2 PUSH2 0xF0B JUMP JUMPDEST SWAP3 SWAP2 POP POP JUMP JUMPDEST PUSH0 PUSH0 PUSH1 0x40 DUP4 DUP6 SUB SLT ISZERO PUSH2 0xF4B JUMPI PUSH2 0xF4A PUSH2 0xEA4 JUMP JUMPDEST JUMPDEST PUSH0 PUSH2 0xF58 DUP6 DUP3 DUP7 ADD PUSH2 0xEEE JUMP JUMPDEST SWAP3 POP POP PUSH1 0x20 PUSH2 0xF69 DUP6 DUP3 DUP7 ADD PUSH2 0xF21 JUMP JUMPDEST SWAP2 POP POP SWAP3 POP SWAP3 SWAP1 POP JUMP JUMPDEST PUSH0 PUSH0 PUSH1 0x40 DUP4 DUP6 SUB SLT ISZERO PUSH2 0xF89 JUMPI PUSH2 0xF88 PUSH2 0xEA4 JUMP JUMPDEST JUMPDEST PUSH0 PUSH2 0xF96 DUP6 DUP3 DUP7 ADD PUSH2 0xEEE JUMP JUMPDEST SWAP3 POP POP PUSH1 0x20 PUSH2 0xFA7 DUP6 DUP3 DUP7 ADD PUSH2 0xEEE JUMP JUMPDEST SWAP2 POP POP SWAP3 POP SWAP3 SWAP1 POP JUMP JUMPDEST PUSH2 0xFBA DUP2 PUSH2 0xF02 JUMP JUMPDEST DUP3 MSTORE POP POP JUMP JUMPDEST PUSH0 PUSH1 0x20 DUP3 ADD SWAP1 POP PUSH2 0xFD3 PUSH0 DUP4 ADD DUP5 PUSH2 0xFB1 JUMP JUMPDEST SWAP3 SWAP2 POP POP JUMP JUMPDEST PUSH0 PUSH1 0x20 DUP3 DUP5 SUB SLT ISZERO PUSH2 0xFEE JUMPI PUSH2 0xFED PUSH2 0xEA4 JUMP JUMPDEST JUMPDEST PUSH0 PUSH2 0xFFB DUP5 DUP3 DUP6 ADD PUSH2 0xEEE JUMP JUMPDEST SWAP2 POP POP SWAP3 SWAP2 POP POP JUMP JUMPDEST PUSH0 PUSH1 0xC0 DUP3 ADD SWAP1 POP PUSH2 0x1017 PUSH0 DUP4 ADD DUP10 PUSH2 0xFB1 JUMP JUMPDEST PUSH2 0x1024 PUSH1 0x20 DUP4 ADD DUP9 PUSH2 0xFB1 JUMP JUMPDEST PUSH2 0x1031 PUSH1 0x40 DUP4 ADD DUP8 PUSH2 0xFB1 JUMP JUMPDEST PUSH2 0x103E PUSH1 0x60 DUP4 ADD DUP7 PUSH2 0xFB1 JUMP JUMPDEST PUSH2 0x104B PUSH1 0x80 DUP4 ADD DUP6 PUSH2 0xFB1 JUMP JUMPDEST PUSH2 0x1058 PUSH1 0xA0 DUP4 ADD DUP5 PUSH2 0xFB1 JUMP JUMPDEST SWAP8 SWAP7 POP POP POP POP POP POP POP JUMP JUMPDEST PUSH0 PUSH1 0x40 DUP3 ADD SWAP1 POP PUSH2 0x1076 PUSH0 DUP4 ADD DUP6 PUSH2 0xFB1 JUMP JUMPDEST PUSH2 0x1083 PUSH1 0x20 DUP4 ADD DUP5 PUSH2 0xFB1 JUMP JUMPDEST SWAP4 SWAP3 POP POP POP JUMP JUMPDEST PUSH32 0x4E487B7100000000000000000000000000000000000000000000000000000000 PUSH0 MSTORE PUSH1 0x11 PUSH1 0x4 MSTORE PUSH1 0x24 PUSH0 REVERT JUMPDEST PUSH0 PUSH2 0x10C1 DUP3 PUSH2 0xF02 JUMP JUMPDEST SWAP2 POP PUSH2 0x10CC DUP4 PUSH2 0xF02 JUMP JUMPDEST SWAP3 POP DUP3 DUP3 MUL PUSH2 0x10DA DUP2 PUSH2 0xF02 JUMP JUMPDEST SWAP2 POP DUP3 DUP3 DIV DUP5 EQ DUP4 ISZERO OR PUSH2 0x10F1 JUMPI PUSH2 0x10F0 PUSH2 0x108A JUMP JUMPDEST JUMPDEST POP SWAP3 SWAP2 POP POP JUMP JUMPDEST PUSH32 0x4E487B7100000000000000000000000000000000000000000000000000000000 PUSH0 MSTORE PUSH1 0x12 PUSH1 0x4 MSTORE PUSH1 0x24 PUSH0 REVERT JUMPDEST PUSH0 PUSH2 0x112F DUP3 PUSH2 0xF02 JUMP JUMPDEST SWAP2 POP PUSH2 0x113A DUP4 PUSH2 0xF02 JUMP JUMPDEST SWAP3 POP DUP3 PUSH2 0x114A JUMPI PUSH2 0x1149 PUSH2 0x10F8 JUMP JUMPDEST JUMPDEST DUP3 DUP3 DIV SWAP1 POP SWAP3 SWAP2 POP POP JUMP JUMPDEST PUSH0 DUP3 DUP3 MSTORE PUSH1 0x20 DUP3 ADD SWAP1 POP SWAP3 SWAP2 POP POP JUMP JUMPDEST PUSH32 0x6E6F7468696E6720746F20726570617900000000000000000000000000000000 PUSH0 DUP3 ADD MSTORE POP JUMP JUMPDEST PUSH0 PUSH2 0x1199 PUSH1 0x10 DUP4 PUSH2 0x1155 JUMP JUMPDEST SWAP2 POP PUSH2 0x11A4 DUP3 PUSH2 0x1165 JUMP JUMPDEST PUSH1 0x20 DUP3 ADD SWAP1 POP SWAP2 SWAP1 POP JUMP JUMPDEST PUSH0 PUSH1 0x20 DUP3 ADD SWAP1 POP DUP2 DUP2 SUB PUSH0 DUP4 ADD MSTORE PUSH2 0x11C6 DUP2 PUSH2 0x118D JUMP JUMPDEST SWAP1 POP SWAP2 SWAP1 POP JUMP JUMPDEST PUSH32 0x7265706179206D6F7265207468616E206F776564000000000000000000000000 PUSH0 DUP3 ADD MSTORE POP JUMP JUMPDEST PUSH0 PUSH2 0x1201 PUSH1 0x14 DUP4 PUSH2 0x1155 JUMP JUMPDEST SWAP2 POP PUSH2 0x120C DUP3 PUSH2 0x11CD JUMP JUMPDEST PUSH1 0x20 DUP3 ADD SWAP1 POP SWAP2 SWAP1 POP JUMP JUMPDEST PUSH0 PUSH1 0x20 DUP3 ADD SWAP1 POP DUP2 DUP2 SUB PUSH0 DUP4 ADD MSTORE PUSH2 0x122E DUP2 PUSH2 0x11F5 JUMP JUMPDEST SWAP1 POP SWAP2 SWAP1 POP JUMP JUMPDEST PUSH0 PUSH2 0x123F DUP3 PUSH2 0xF02 JUMP JUMPDEST SWAP2 POP PUSH2 0x124A DUP4 PUSH2 0xF02 JUMP JUMPDEST SWAP3 POP DUP3 DUP3 ADD SWAP1 POP DUP1 DUP3 GT ISZERO PUSH2 0x1262 JUMPI PUSH2 0x1261 PUSH2 0x108A JUMP JUMPDEST JUMPDEST SWAP3 SWAP2 POP POP JUMP JUMPDEST PUSH0 PUSH2 0x1272 DUP3 PUSH2 0xF02 JUMP JUMPDEST SWAP2 POP PUSH2 0x127D DUP4 PUSH2 0xF02 JUMP JUMPDEST SWAP3 POP DUP3 DUP3 SUB SWAP1 POP DUP2 DUP2 GT ISZERO PUSH2 0x1295 JUMPI PUSH2 0x1294 PUSH2 0x108A JUMP JUMPDEST JUMPDEST SWAP3 SWAP2 POP POP JUMP JUMPDEST PUSH2 0x12A4 DUP2 PUSH2 0xEC7 JUMP JUMPDEST DUP3 MSTORE POP POP JUMP JUMPDEST PUSH0 PUSH1 0x60 DUP3 ADD SWAP1 POP PUSH2 0x12BD PUSH0 DUP4 ADD DUP7 PUSH2 0x129B JUMP JUMPDEST PUSH2 0x12CA PUSH1 0x20 DUP4 ADD DUP6 PUSH2 0x129B JUMP JUMPDEST PUSH2 0x12D7 PUSH1 0x40 DUP4 ADD DUP5 PUSH2 0xFB1 JUMP JUMPDEST SWAP5 SWAP4 POP POP POP POP JUMP JUMPDEST PUSH0 DUP2 ISZERO ISZERO SWAP1 POP SWAP2 SWAP1 POP JUMP JUMPDEST PUSH2 0x12F3 DUP2 PUSH2 0x12DF JUMP JUMPDEST DUP2 EQ PUSH2 0x12FD JUMPI PUSH0 PUSH0 REVERT JUMPDEST POP JUMP JUMPDEST PUSH0 DUP2 MLOAD SWAP1 POP PUSH2 0x130E DUP2 PUSH2 0x12EA JUMP JUMPDEST SWAP3 SWAP2 POP POP JUMP JUMPDEST PUSH0 PUSH1 0x20 DUP3 DUP5 SUB SLT ISZERO PUSH2 0x1329 JUMPI PUSH2 0x1328 PUSH2 0xEA4 JUMP JUMPDEST JUMPDEST PUSH0 PUSH2 0x1336 DUP5 DUP3 DUP6 ADD PUSH2 0x1300 JUMP JUMPDEST SWAP2 POP POP SWAP3 SWAP2 POP POP JUMP JUMPDEST PUSH32 0x7472616E73666572206661696C65640000000000000000000000000000000000 PUSH0 DUP3 ADD MSTORE POP JUMP JUMPDEST PUSH0 PUSH2 0x1373 PUSH1 0xF DUP4 PUSH2 0x1155 JUMP JUMPDEST SWAP2 POP PUSH2 0x137E DUP3 PUSH2 0x133F JUMP JUMPDEST PUSH1 0x20 DUP3 ADD SWAP1 POP SWAP2 SWAP1 POP JUMP JUMPDEST PUSH0 PUSH1 0x20 DUP3 ADD SWAP1 POP DUP2 DUP2 SUB PUSH0 DUP4 ADD MSTORE PUSH2 0x13A0 DUP2 PUSH2 0x1367 JUMP JUMPDEST SWAP1 POP SWAP2 SWAP1 POP JUMP JUMPDEST PUSH0 PUSH1 0x40 DUP3 ADD SWAP1 POP PUSH2 0x13BA PUSH0 DUP4 ADD DUP6 PUSH2 0x129B JUMP JUMPDEST PUSH2 0x13C7 PUSH1 0x20 DUP4 ADD DUP5 PUSH2 0xFB1 JUMP JUMPDEST SWAP4 SWAP3 POP POP POP JUMP INVALID LOG2 PUSH5 0x6970667358 0x22 SLT KECCAK256 CALLER PUSH7 0xBE5B65E3ECC91A 0xC4 0xB8 PUSH6 0x5F3A198907E8 PUSH7 0x2D2443915DD86A 0xC6 0xBA 0x4D 0xB8 0xAE PUSH8 0x64736F6C63430008 0x1E STOP CALLER "
				},
				"gasEstimates": {
					"creation": {
						"codeDepositCost": "1024800",
						"executionCost": "1065",
						"totalCost": "1025865"
					},
					"external": {
						"accounts(address,address)": "infinite",
						"borrow(address,uint256)": "infinite",
						"borrowedUnderlying(address,address)": "infinite",
						"deposit(address,uint256)": "infinite",
						"markets(address)": "infinite",
						"repay(address,uint256)": "infinite",
						"suppliedUnderlying(address,address)": "infinite",
						"withdraw(address,uint256)": "infinite"
					},
					"internal": {
						"_accrue(address)": "infinite",
						"_getBorrowRate(address)": "infinite"
					}
				},
				"methodIdentifiers": {
					"accounts(address,address)": "ad74b775",
					"borrow(address,uint256)": "4b8a3529",
					"borrowedUnderlying(address,address)": "f7fd9f32",
					"deposit(address,uint256)": "47e7ef24",
					"markets(address)": "8e8f294b",
					"repay(address,uint256)": "22867d78",
					"suppliedUnderlying(address,address)": "5bc6bdc9",
					"withdraw(address,uint256)": "f3fef3a3"
				}
			},
			"storageLayout": {
				"storage": [
					{
						"astId": 107,
						"contract": "src/TinyLend.sol:TinyLend",
						"label": "markets",
						"offset": 0,
						"slot": "0",
						"type": "t_mapping(t_address,t_struct(Market)97_storage)"
					},
					{
						"astId": 114,
						"contract": "src/TinyLend.sol:TinyLend",
						"label": "accounts",
						"offset": 0,
						"slot": "1",
						"type": "t_mapping(t_address,t_mapping(t_address,t_struct(Account)102_storage))"
					}
				],
				"types": {
					"t_address": {
						"encoding": "inplace",
						"label": "address",
						"numberOfBytes": "20"
					},
					"t_mapping(t_address,t_mapping(t_address,t_struct(Account)102_storage))": {
						"encoding": "mapping",
						"key": "t_address",
						"label": "mapping(address => mapping(address => struct TinyLend.Account))",
						"numberOfBytes": "32",
						"value": "t_mapping(t_address,t_struct(Account)102_storage)"
					},
					"t_mapping(t_address,t_struct(Account)102_storage)": {
						"encoding": "mapping",
						"key": "t_address",
						"label": "mapping(address => struct TinyLend.Account)",
						"numberOfBytes": "32",
						"value": "t_struct(Account)102_storage"
					},
					"t_mapping(t_address,t_struct(Market)97_storage)": {
						"encoding": "mapping",
						"key": "t_address",
						"label": "mapping(address => struct TinyLend.Market)",
						"numberOfBytes": "32",
						"value": "t_struct(Market)97_storage"
					},
					"t_struct(Account)102_storage": {
						"encoding": "inplace",
						"label": "struct TinyLend.Account",
						"members": [
							{
								"astId": 99,
								"contract": "src/TinyLend.sol:TinyLend",
								"label": "supplyShares",
								"offset": 0,
								"slot": "0",
								"type": "t_uint256"
							},
							{
								"astId": 101,
								"contract": "src/TinyLend.sol:TinyLend",
								"label": "borrowShares",
								"offset": 0,
								"slot": "1",
								"type": "t_uint256"
							}
						],
						"numberOfBytes": "64"
					},
					"t_struct(Market)97_storage": {
						"encoding": "inplace",
						"label": "struct TinyLend.Market",
						"members": [
							{
								"astId": 86,
								"contract": "src/TinyLend.sol:TinyLend",
								"label": "supplyAcc",
								"offset": 0,
								"slot": "0",
								"type": "t_uint256"
							},
							{
								"astId": 88,
								"contract": "src/TinyLend.sol:TinyLend",
								"label": "borrowAcc",
								"offset": 0,
								"slot": "1",
								"type": "t_uint256"
							},
							{
								"astId": 90,
								"contract": "src/TinyLend.sol:TinyLend",
								"label": "totalSupplyShares",
								"offset": 0,
								"slot": "2",
								"type": "t_uint256"
							},
							{
								"astId": 92,
								"contract": "src/TinyLend.sol:TinyLend",
								"label": "totalBorrowShares",
								"offset": 0,
								"slot": "3",
								"type": "t_uint256"
							},
							{
								"astId": 94,
								"contract": "src/TinyLend.sol:TinyLend",
								"label": "totalBorrowUnderlying",
								"offset": 0,
								"slot": "4",
								"type": "t_uint256"
							},
							{
								"astId": 96,
								"contract": "src/TinyLend.sol:TinyLend",
								"label": "lastAccrual",
								"offset": 0,
								"slot": "5",
								"type": "t_uint256"
							}
						],
						"numberOfBytes": "192"
					},
					"t_uint256": {
						"encoding": "inplace",
						"label": "uint256",
						"numberOfBytes": "32"
					}
				}
			},
			"userdoc": {
				"kind": "user",
				"methods": {
					"borrow(address,uint256)": {
						"notice": "borrow `amt` of `col`, receiving underlying and minting debt-shares"
					},
					"deposit(address,uint256)": {
						"notice": "deposit `amt` of `col` and receive supply-shares"
					},
					"repay(address,uint256)": {
						"notice": "repay up to `amt` of `col` debt; use type(uint256).max to repay all"
					},
					"withdraw(address,uint256)": {
						"notice": "withdraw `amt` of `col`, burning supply-shares"
					}
				},
				"version": 1
			}
		}
	}
}